{"abi":[{"type":"constructor","inputs":[{"name":"_token","type":"address","internalType":"contract IVotes"},{"name":"_timelock","type":"address","internalType":"contract TimelockController"}],"stateMutability":"nonpayable"},{"type":"receive","stateMutability":"payable"},{"type":"function","name":"BALLOT_TYPEHASH","inputs":[],"outputs":[{"name":"","type":"bytes32","internalType":"bytes32"}],"stateMutability":"view"},{"type":"function","name":"CLOCK_MODE","inputs":[],"outputs":[{"name":"","type":"string","internalType":"string"}],"stateMutability":"view"},{"type":"function","name":"COUNTING_MODE","inputs":[],"outputs":[{"name":"","type":"string","internalType":"string"}],"stateMutability":"pure"},{"type":"function","name":"EXTENDED_BALLOT_TYPEHASH","inputs":[],"outputs":[{"name":"","type":"bytes32","internalType":"bytes32"}],"stateMutability":"view"},{"type":"function","name":"cancel","inputs":[{"name":"targets","type":"address[]","internalType":"address[]"},{"name":"values","type":"uint256[]","internalType":"uint256[]"},{"name":"calldatas","type":"bytes[]","internalType":"bytes[]"},{"name":"descriptionHash","type":"bytes32","internalType":"bytes32"}],"outputs":[{"name":"","type":"uint256","internalType":"uint256"}],"stateMutability":"nonpayable"},{"type":"function","name":"castVote","inputs":[{"name":"proposalId","type":"uint256","internalType":"uint256"},{"name":"support","type":"uint8","internalType":"uint8"}],"outputs":[{"name":"","type":"uint256","internalType":"uint256"}],"stateMutability":"nonpayable"},{"type":"function","name":"castVoteBySig","inputs":[{"name":"proposalId","type":"uint256","internalType":"uint256"},{"name":"support","type":"uint8","internalType":"uint8"},{"name":"voter","type":"address","internalType":"address"},{"name":"signature","type":"bytes","internalType":"bytes"}],"outputs":[{"name":"","type":"uint256","internalType":"uint256"}],"stateMutability":"nonpayable"},{"type":"function","name":"castVoteWithReason","inputs":[{"name":"proposalId","type":"uint256","internalType":"uint256"},{"name":"support","type":"uint8","internalType":"uint8"},{"name":"reason","type":"string","internalType":"string"}],"outputs":[{"name":"","type":"uint256","internalType":"uint256"}],"stateMutability":"nonpayable"},{"type":"function","name":"castVoteWithReasonAndParams","inputs":[{"name":"proposalId","type":"uint256","internalType":"uint256"},{"name":"support","type":"uint8","internalType":"uint8"},{"name":"reason","type":"string","internalType":"string"},{"name":"params","type":"bytes","internalType":"bytes"}],"outputs":[{"name":"","type":"uint256","internalType":"uint256"}],"stateMutability":"nonpayable"},{"type":"function","name":"castVoteWithReasonAndParamsBySig","inputs":[{"name":"proposalId","type":"uint256","internalType":"uint256"},{"name":"support","type":"uint8","internalType":"uint8"},{"name":"voter","type":"address","internalType":"address"},{"name":"reason","type":"string","internalType":"string"},{"name":"params","type":"bytes","internalType":"bytes"},{"name":"signature","type":"bytes","internalType":"bytes"}],"outputs":[{"name":"","type":"uint256","internalType":"uint256"}],"stateMutability":"nonpayable"},{"type":"function","name":"clock","inputs":[],"outputs":[{"name":"","type":"uint48","internalType":"uint48"}],"stateMutability":"view"},{"type":"function","name":"eip712Domain","inputs":[],"outputs":[{"name":"fields","type":"bytes1","internalType":"bytes1"},{"name":"name","type":"string","internalType":"string"},{"name":"version","type":"string","internalType":"string"},{"name":"chainId","type":"uint256","internalType":"uint256"},{"name":"verifyingContract","type":"address","internalType":"address"},{"name":"salt","type":"bytes32","internalType":"bytes32"},{"name":"extensions","type":"uint256[]","internalType":"uint256[]"}],"stateMutability":"view"},{"type":"function","name":"execute","inputs":[{"name":"targets","type":"address[]","internalType":"address[]"},{"name":"values","type":"uint256[]","internalType":"uint256[]"},{"name":"calldatas","type":"bytes[]","internalType":"bytes[]"},{"name":"descriptionHash","type":"bytes32","internalType":"bytes32"}],"outputs":[{"name":"","type":"uint256","internalType":"uint256"}],"stateMutability":"payable"},{"type":"function","name":"getProposalId","inputs":[{"name":"targets","type":"address[]","internalType":"address[]"},{"name":"values","type":"uint256[]","internalType":"uint256[]"},{"name":"calldatas","type":"bytes[]","internalType":"bytes[]"},{"name":"descriptionHash","type":"bytes32","internalType":"bytes32"}],"outputs":[{"name":"","type":"uint256","internalType":"uint256"}],"stateMutability":"view"},{"type":"function","name":"getVotes","inputs":[{"name":"account","type":"address","internalType":"address"},{"name":"timepoint","type":"uint256","internalType":"uint256"}],"outputs":[{"name":"","type":"uint256","internalType":"uint256"}],"stateMutability":"view"},{"type":"function","name":"getVotesWithParams","inputs":[{"name":"account","type":"address","internalType":"address"},{"name":"timepoint","type":"uint256","internalType":"uint256"},{"name":"params","type":"bytes","internalType":"bytes"}],"outputs":[{"name":"","type":"uint256","internalType":"uint256"}],"stateMutability":"view"},{"type":"function","name":"hasVoted","inputs":[{"name":"proposalId","type":"uint256","internalType":"uint256"},{"name":"account","type":"address","internalType":"address"}],"outputs":[{"name":"","type":"bool","internalType":"bool"}],"stateMutability":"view"},{"type":"function","name":"hashProposal","inputs":[{"name":"targets","type":"address[]","internalType":"address[]"},{"name":"values","type":"uint256[]","internalType":"uint256[]"},{"name":"calldatas","type":"bytes[]","internalType":"bytes[]"},{"name":"descriptionHash","type":"bytes32","internalType":"bytes32"}],"outputs":[{"name":"","type":"uint256","internalType":"uint256"}],"stateMutability":"pure"},{"type":"function","name":"name","inputs":[],"outputs":[{"name":"","type":"string","internalType":"string"}],"stateMutability":"view"},{"type":"function","name":"nonces","inputs":[{"name":"owner","type":"address","internalType":"address"}],"outputs":[{"name":"","type":"uint256","internalType":"uint256"}],"stateMutability":"view"},{"type":"function","name":"onERC1155BatchReceived","inputs":[{"name":"","type":"address","internalType":"address"},{"name":"","type":"address","internalType":"address"},{"name":"","type":"uint256[]","internalType":"uint256[]"},{"name":"","type":"uint256[]","internalType":"uint256[]"},{"name":"","type":"bytes","internalType":"bytes"}],"outputs":[{"name":"","type":"bytes4","internalType":"bytes4"}],"stateMutability":"nonpayable"},{"type":"function","name":"onERC1155Received","inputs":[{"name":"","type":"address","internalType":"address"},{"name":"","type":"address","internalType":"address"},{"name":"","type":"uint256","internalType":"uint256"},{"name":"","type":"uint256","internalType":"uint256"},{"name":"","type":"bytes","internalType":"bytes"}],"outputs":[{"name":"","type":"bytes4","internalType":"bytes4"}],"stateMutability":"nonpayable"},{"type":"function","name":"onERC721Received","inputs":[{"name":"","type":"address","internalType":"address"},{"name":"","type":"address","internalType":"address"},{"name":"","type":"uint256","internalType":"uint256"},{"name":"","type":"bytes","internalType":"bytes"}],"outputs":[{"name":"","type":"bytes4","internalType":"bytes4"}],"stateMutability":"nonpayable"},{"type":"function","name":"proposalDeadline","inputs":[{"name":"proposalId","type":"uint256","internalType":"uint256"}],"outputs":[{"name":"","type":"uint256","internalType":"uint256"}],"stateMutability":"view"},{"type":"function","name":"proposalEta","inputs":[{"name":"proposalId","type":"uint256","internalType":"uint256"}],"outputs":[{"name":"","type":"uint256","internalType":"uint256"}],"stateMutability":"view"},{"type":"function","name":"proposalNeedsQueuing","inputs":[{"name":"proposalId","type":"uint256","internalType":"uint256"}],"outputs":[{"name":"","type":"bool","internalType":"bool"}],"stateMutability":"view"},{"type":"function","name":"proposalProposer","inputs":[{"name":"proposalId","type":"uint256","internalType":"uint256"}],"outputs":[{"name":"","type":"address","internalType":"address"}],"stateMutability":"view"},{"type":"function","name":"proposalSnapshot","inputs":[{"name":"proposalId","type":"uint256","internalType":"uint256"}],"outputs":[{"name":"","type":"uint256","internalType":"uint256"}],"stateMutability":"view"},{"type":"function","name":"proposalThreshold","inputs":[],"outputs":[{"name":"","type":"uint256","internalType":"uint256"}],"stateMutability":"pure"},{"type":"function","name":"proposalVotes","inputs":[{"name":"proposalId","type":"uint256","internalType":"uint256"}],"outputs":[{"name":"againstVotes","type":"uint256","internalType":"uint256"},{"name":"forVotes","type":"uint256","internalType":"uint256"},{"name":"abstainVotes","type":"uint256","internalType":"uint256"}],"stateMutability":"view"},{"type":"function","name":"propose","inputs":[{"name":"targets","type":"address[]","internalType":"address[]"},{"name":"values","type":"uint256[]","internalType":"uint256[]"},{"name":"calldatas","type":"bytes[]","internalType":"bytes[]"},{"name":"description","type":"string","internalType":"string"}],"outputs":[{"name":"","type":"uint256","internalType":"uint256"}],"stateMutability":"nonpayable"},{"type":"function","name":"queue","inputs":[{"name":"targets","type":"address[]","internalType":"address[]"},{"name":"values","type":"uint256[]","internalType":"uint256[]"},{"name":"calldatas","type":"bytes[]","internalType":"bytes[]"},{"name":"descriptionHash","type":"bytes32","internalType":"bytes32"}],"outputs":[{"name":"","type":"uint256","internalType":"uint256"}],"stateMutability":"nonpayable"},{"type":"function","name":"quorum","inputs":[{"name":"timepoint","type":"uint256","internalType":"uint256"}],"outputs":[{"name":"","type":"uint256","internalType":"uint256"}],"stateMutability":"view"},{"type":"function","name":"quorumDenominator","inputs":[],"outputs":[{"name":"","type":"uint256","internalType":"uint256"}],"stateMutability":"view"},{"type":"function","name":"quorumNumerator","inputs":[{"name":"timepoint","type":"uint256","internalType":"uint256"}],"outputs":[{"name":"","type":"uint256","internalType":"uint256"}],"stateMutability":"view"},{"type":"function","name":"quorumNumerator","inputs":[],"outputs":[{"name":"","type":"uint256","internalType":"uint256"}],"stateMutability":"view"},{"type":"function","name":"relay","inputs":[{"name":"target","type":"address","internalType":"address"},{"name":"value","type":"uint256","internalType":"uint256"},{"name":"data","type":"bytes","internalType":"bytes"}],"outputs":[],"stateMutability":"payable"},{"type":"function","name":"setProposalThreshold","inputs":[{"name":"newProposalThreshold","type":"uint256","internalType":"uint256"}],"outputs":[],"stateMutability":"nonpayable"},{"type":"function","name":"setVotingDelay","inputs":[{"name":"newVotingDelay","type":"uint48","internalType":"uint48"}],"outputs":[],"stateMutability":"nonpayable"},{"type":"function","name":"setVotingPeriod","inputs":[{"name":"newVotingPeriod","type":"uint32","internalType":"uint32"}],"outputs":[],"stateMutability":"nonpayable"},{"type":"function","name":"state","inputs":[{"name":"proposalId","type":"uint256","internalType":"uint256"}],"outputs":[{"name":"","type":"uint8","internalType":"enum IGovernor.ProposalState"}],"stateMutability":"view"},{"type":"function","name":"supportsInterface","inputs":[{"name":"interfaceId","type":"bytes4","internalType":"bytes4"}],"outputs":[{"name":"","type":"bool","internalType":"bool"}],"stateMutability":"view"},{"type":"function","name":"timelock","inputs":[],"outputs":[{"name":"","type":"address","internalType":"address"}],"stateMutability":"view"},{"type":"function","name":"token","inputs":[],"outputs":[{"name":"","type":"address","internalType":"contract IERC5805"}],"stateMutability":"view"},{"type":"function","name":"updateQuorumNumerator","inputs":[{"name":"newQuorumNumerator","type":"uint256","internalType":"uint256"}],"outputs":[],"stateMutability":"nonpayable"},{"type":"function","name":"updateTimelock","inputs":[{"name":"newTimelock","type":"address","internalType":"contract TimelockController"}],"outputs":[],"stateMutability":"nonpayable"},{"type":"function","name":"version","inputs":[],"outputs":[{"name":"","type":"string","internalType":"string"}],"stateMutability":"view"},{"type":"function","name":"votingDelay","inputs":[],"outputs":[{"name":"","type":"uint256","internalType":"uint256"}],"stateMutability":"pure"},{"type":"function","name":"votingPeriod","inputs":[],"outputs":[{"name":"","type":"uint256","internalType":"uint256"}],"stateMutability":"pure"},{"type":"event","name":"EIP712DomainChanged","inputs":[],"anonymous":false},{"type":"event","name":"ProposalCanceled","inputs":[{"name":"proposalId","type":"uint256","indexed":false,"internalType":"uint256"}],"anonymous":false},{"type":"event","name":"ProposalCreated","inputs":[{"name":"proposalId","type":"uint256","indexed":false,"internalType":"uint256"},{"name":"proposer","type":"address","indexed":false,"internalType":"address"},{"name":"targets","type":"address[]","indexed":false,"internalType":"address[]"},{"name":"values","type":"uint256[]","indexed":false,"internalType":"uint256[]"},{"name":"signatures","type":"string[]","indexed":false,"internalType":"string[]"},{"name":"calldatas","type":"bytes[]","indexed":false,"internalType":"bytes[]"},{"name":"voteStart","type":"uint256","indexed":false,"internalType":"uint256"},{"name":"voteEnd","type":"uint256","indexed":false,"internalType":"uint256"},{"name":"description","type":"string","indexed":false,"internalType":"string"}],"anonymous":false},{"type":"event","name":"ProposalExecuted","inputs":[{"name":"proposalId","type":"uint256","indexed":false,"internalType":"uint256"}],"anonymous":false},{"type":"event","name":"ProposalQueued","inputs":[{"name":"proposalId","type":"uint256","indexed":false,"internalType":"uint256"},{"name":"etaSeconds","type":"uint256","indexed":false,"internalType":"uint256"}],"anonymous":false},{"type":"event","name":"ProposalThresholdSet","inputs":[{"name":"oldProposalThreshold","type":"uint256","indexed":false,"internalType":"uint256"},{"name":"newProposalThreshold","type":"uint256","indexed":false,"internalType":"uint256"}],"anonymous":false},{"type":"event","name":"QuorumNumeratorUpdated","inputs":[{"name":"oldQuorumNumerator","type":"uint256","indexed":false,"internalType":"uint256"},{"name":"newQuorumNumerator","type":"uint256","indexed":false,"internalType":"uint256"}],"anonymous":false},{"type":"event","name":"TimelockChange","inputs":[{"name":"oldTimelock","type":"address","indexed":false,"internalType":"address"},{"name":"newTimelock","type":"address","indexed":false,"internalType":"address"}],"anonymous":false},{"type":"event","name":"VoteCast","inputs":[{"name":"voter","type":"address","indexed":true,"internalType":"address"},{"name":"proposalId","type":"uint256","indexed":false,"internalType":"uint256"},{"name":"support","type":"uint8","indexed":false,"internalType":"uint8"},{"name":"weight","type":"uint256","indexed":false,"internalType":"uint256"},{"name":"reason","type":"string","indexed":false,"internalType":"string"}],"anonymous":false},{"type":"event","name":"VoteCastWithParams","inputs":[{"name":"voter","type":"address","indexed":true,"internalType":"address"},{"name":"proposalId","type":"uint256","indexed":false,"internalType":"uint256"},{"name":"support","type":"uint8","indexed":false,"internalType":"uint8"},{"name":"weight","type":"uint256","indexed":false,"internalType":"uint256"},{"name":"reason","type":"string","indexed":false,"internalType":"string"},{"name":"params","type":"bytes","indexed":false,"internalType":"bytes"}],"anonymous":false},{"type":"event","name":"VotingDelaySet","inputs":[{"name":"oldVotingDelay","type":"uint256","indexed":false,"internalType":"uint256"},{"name":"newVotingDelay","type":"uint256","indexed":false,"internalType":"uint256"}],"anonymous":false},{"type":"event","name":"VotingPeriodSet","inputs":[{"name":"oldVotingPeriod","type":"uint256","indexed":false,"internalType":"uint256"},{"name":"newVotingPeriod","type":"uint256","indexed":false,"internalType":"uint256"}],"anonymous":false},{"type":"error","name":"CheckpointUnorderedInsertion","inputs":[]},{"type":"error","name":"FailedCall","inputs":[]},{"type":"error","name":"GovernorAlreadyCastVote","inputs":[{"name":"voter","type":"address","internalType":"address"}]},{"type":"error","name":"GovernorAlreadyQueuedProposal","inputs":[{"name":"proposalId","type":"uint256","internalType":"uint256"}]},{"type":"error","name":"GovernorDisabledDeposit","inputs":[]},{"type":"error","name":"GovernorInsufficientProposerVotes","inputs":[{"name":"proposer","type":"address","internalType":"address"},{"name":"votes","type":"uint256","internalType":"uint256"},{"name":"threshold","type":"uint256","internalType":"uint256"}]},{"type":"error","name":"GovernorInvalidProposalLength","inputs":[{"name":"targets","type":"uint256","internalType":"uint256"},{"name":"calldatas","type":"uint256","internalType":"uint256"},{"name":"values","type":"uint256","internalType":"uint256"}]},{"type":"error","name":"GovernorInvalidQuorumFraction","inputs":[{"name":"quorumNumerator","type":"uint256","internalType":"uint256"},{"name":"quorumDenominator","type":"uint256","internalType":"uint256"}]},{"type":"error","name":"GovernorInvalidSignature","inputs":[{"name":"voter","type":"address","internalType":"address"}]},{"type":"error","name":"GovernorInvalidVoteParams","inputs":[]},{"type":"error","name":"GovernorInvalidVoteType","inputs":[]},{"type":"error","name":"GovernorInvalidVotingPeriod","inputs":[{"name":"votingPeriod","type":"uint256","internalType":"uint256"}]},{"type":"error","name":"GovernorNonexistentProposal","inputs":[{"name":"proposalId","type":"uint256","internalType":"uint256"}]},{"type":"error","name":"GovernorNotQueuedProposal","inputs":[{"name":"proposalId","type":"uint256","internalType":"uint256"}]},{"type":"error","name":"GovernorOnlyExecutor","inputs":[{"name":"account","type":"address","internalType":"address"}]},{"type":"error","name":"GovernorQueueNotImplemented","inputs":[]},{"type":"error","name":"GovernorRestrictedProposer","inputs":[{"name":"proposer","type":"address","internalType":"address"}]},{"type":"error","name":"GovernorUnableToCancel","inputs":[{"name":"proposalId","type":"uint256","internalType":"uint256"},{"name":"account","type":"address","internalType":"address"}]},{"type":"error","name":"GovernorUnexpectedProposalState","inputs":[{"name":"proposalId","type":"uint256","internalType":"uint256"},{"name":"current","type":"uint8","internalType":"enum IGovernor.ProposalState"},{"name":"expectedStates","type":"bytes32","internalType":"bytes32"}]},{"type":"error","name":"InvalidAccountNonce","inputs":[{"name":"account","type":"address","internalType":"address"},{"name":"currentNonce","type":"uint256","internalType":"uint256"}]},{"type":"error","name":"InvalidShortString","inputs":[]},{"type":"error","name":"SafeCastOverflowedUintDowncast","inputs":[{"name":"bits","type":"uint8","internalType":"uint8"},{"name":"value","type":"uint256","internalType":"uint256"}]},{"type":"error","name":"StringTooLong","inputs":[{"name":"str","type":"string","internalType":"string"}]}],"bytecode":{"object":"0x610180604052348015610010575f5ffd5b506040516183ad3803806183ad83398181016040528101906100329190610c09565b80600483611c2061c4e05f6040518060400160405280601081526020017f476f7665726e6f72436f6e747261637400000000000000000000000000000000815250806100826101c960201b60201c565b6100955f8361020660201b90919060201c565b61012081815250506100b160018261020660201b90919060201c565b6101408181525050818051906020012060e08181525050808051906020012061010081815250504660a081815250506100ee61025360201b60201c565b608081815250503073ffffffffffffffffffffffffffffffffffffffff1660c08173ffffffffffffffffffffffffffffffffffffffff16815250505050806003908161013a9190610e95565b505061014b836102ad60201b60201c565b61015a8261032060201b60201c565b610169816103d960201b60201c565b5050508073ffffffffffffffffffffffffffffffffffffffff166101608173ffffffffffffffffffffffffffffffffffffffff1681525050506101b18161041e60201b60201c565b506101c1816104f860201b60201c565b5050506113f3565b60606040518060400160405280600181526020017f3100000000000000000000000000000000000000000000000000000000000000815250905090565b5f602083511015610227576102208361059560201b60201c565b905061024d565b82610237836105fa60201b60201c565b5f0190816102459190610e95565b5060ff5f1b90505b92915050565b5f7f8b73c3c69bb8fe3d512ecc4cf759cc79239f7b179b0ffacaa9a75d522b39400f60e051610100514630604051602001610292959493929190610f9a565b60405160208183030381529060405280519060200120905090565b7fc565b045403dc03c2eea82b81a0465edad9e2e7fc4d97e11421c209da93d7a9360085f9054906101000a900465ffffffffffff16826040516102f192919061102c565b60405180910390a18060085f6101000a81548165ffffffffffff021916908365ffffffffffff16021790555050565b5f8163ffffffff160361036a575f6040517ff1cfbf05000000000000000000000000000000000000000000000000000000008152600401610361919061108c565b60405180910390fd5b7f7e3f7f0708a84de9203036abaa450dccc85ad5ff52f78c170f3edb55cf5e8828600860069054906101000a900463ffffffff16826040516103ad9291906110e4565b60405180910390a180600860066101000a81548163ffffffff021916908363ffffffff16021790555050565b7fccb45da8d5717e6c4544694297c4ba5cf151d455c9bb0ed4fc7a38411bc054616007548260405161040c92919061110b565b60405180910390a18060078190555050565b5f61042d61060360201b60201c565b9050808211156104765781816040517f243e544500000000000000000000000000000000000000000000000000000000815260040161046d92919061110b565b60405180910390fd5b5f61048561060b60201b60201c565b90506104b861049861063d60201b60201c565b6104a7856106d460201b60201c565b600a61074160201b9092919060201c565b50507f0553476bf02ef2726e8ce5ced78d63e26e602e4a2257b1f559418e24b463399781846040516104eb92919061110b565b60405180910390a1505050565b7f08f74ea46ef7894f65eabfb5e6e695de773a000b47c529ab559178069b226401600b5f9054906101000a900473ffffffffffffffffffffffffffffffffffffffff168260405161054a929190611132565b60405180910390a180600b5f6101000a81548173ffffffffffffffffffffffffffffffffffffffff021916908373ffffffffffffffffffffffffffffffffffffffff16021790555050565b5f5f829050601f815111156105e157826040517f305a27a90000000000000000000000000000000000000000000000000000000081526004016105d891906111bf565b60405180910390fd5b8051816105ed9061120c565b5f1c175f1b915050919050565b5f819050919050565b5f6064905090565b5f61061c600a61076260201b60201c565b79ffffffffffffffffffffffffffffffffffffffffffffffffffff16905090565b5f61064c6107ca60201b60201c565b73ffffffffffffffffffffffffffffffffffffffff166391ddadf46040518163ffffffff1660e01b8152600401602060405180830381865afa9250505080156106b357506040513d601f19601f820116820180604052508101906106b0919061129c565b60015b6106cc576106c56107d460201b60201c565b90506106d1565b809150505b90565b5f79ffffffffffffffffffffffffffffffffffffffffffffffffffff80168211156107395760d0826040517f6dfcc65000000000000000000000000000000000000000000000000000000000815260040161073092919061130c565b60405180910390fd5b819050919050565b5f5f610756855f0185856107e960201b60201c565b91509150935093915050565b5f5f825f018054905090505f81146107c057610792835f016001836107879190611360565b610ae360201b60201c565b5f0160069054906101000a900479ffffffffffffffffffffffffffffffffffffffffffffffffffff166107c2565b5f5b915050919050565b5f61016051905090565b5f6107e443610af560201b60201c565b905090565b5f5f5f858054905090505f8111156109fb575f6108188760018461080d9190611360565b610ae360201b60201c565b90505f815f015f9054906101000a900465ffffffffffff1690505f825f0160069054906101000a900479ffffffffffffffffffffffffffffffffffffffffffffffffffff1690508765ffffffffffff168265ffffffffffff1611156108a9576040517f2520601d00000000000000000000000000000000000000000000000000000000815260040160405180910390fd5b8765ffffffffffff168265ffffffffffff16036109135786835f0160066101000a81548179ffffffffffffffffffffffffffffffffffffffffffffffffffff021916908379ffffffffffffffffffffffffffffffffffffffffffffffffffff1602179055506109ec565b8860405180604001604052808a65ffffffffffff1681526020018979ffffffffffffffffffffffffffffffffffffffffffffffffffff16815250908060018154018082558091505060019003905f5260205f20015f909190919091505f820151815f015f6101000a81548165ffffffffffff021916908365ffffffffffff1602179055506020820151815f0160066101000a81548179ffffffffffffffffffffffffffffffffffffffffffffffffffff021916908379ffffffffffffffffffffffffffffffffffffffffffffffffffff16021790555050505b80879550955050505050610adb565b8560405180604001604052808765ffffffffffff1681526020018679ffffffffffffffffffffffffffffffffffffffffffffffffffff16815250908060018154018082558091505060019003905f5260205f20015f909190919091505f820151815f015f6101000a81548165ffffffffffff021916908365ffffffffffff1602179055506020820151815f0160066101000a81548179ffffffffffffffffffffffffffffffffffffffffffffffffffff021916908379ffffffffffffffffffffffffffffffffffffffffffffffffffff16021790555050505f8492509250505b935093915050565b5f825f528160205f2001905092915050565b5f65ffffffffffff8016821115610b46576030826040517f6dfcc650000000000000000000000000000000000000000000000000000000008152600401610b3d9291906113cc565b60405180910390fd5b819050919050565b5f5ffd5b5f73ffffffffffffffffffffffffffffffffffffffff82169050919050565b5f610b7b82610b52565b9050919050565b5f610b8c82610b71565b9050919050565b610b9c81610b82565b8114610ba6575f5ffd5b50565b5f81519050610bb781610b93565b92915050565b5f610bc782610b52565b9050919050565b5f610bd882610bbd565b9050919050565b610be881610bce565b8114610bf2575f5ffd5b50565b5f81519050610c0381610bdf565b92915050565b5f5f60408385031215610c1f57610c1e610b4e565b5b5f610c2c85828601610ba9565b9250506020610c3d85828601610bf5565b9150509250929050565b5f81519050919050565b7f4e487b71000000000000000000000000000000000000000000000000000000005f52604160045260245ffd5b7f4e487b71000000000000000000000000000000000000000000000000000000005f52602260045260245ffd5b5f6002820490506001821680610cc257607f821691505b602082108103610cd557610cd4610c7e565b5b50919050565b5f819050815f5260205f209050919050565b5f6020601f8301049050919050565b5f82821b905092915050565b5f60088302610d377fffffffffffffffffffffffffffffffffffffffffffffffffffffffffffffffff82610cfc565b610d418683610cfc565b95508019841693508086168417925050509392505050565b5f819050919050565b5f819050919050565b5f610d85610d80610d7b84610d59565b610d62565b610d59565b9050919050565b5f819050919050565b610d9e83610d6b565b610db2610daa82610d8c565b848454610d08565b825550505050565b5f5f905090565b610dc9610dba565b610dd4818484610d95565b505050565b5f5b82811015610dfa57610def5f828401610dc1565b600181019050610ddb565b505050565b601f821115610e4d5782821115610e4c57610e1981610cdb565b610e2283610ced565b610e2b85610ced565b6020861015610e38575f90505b808301610e4782840382610dd9565b505050505b5b505050565b5f82821c905092915050565b5f610e6d5f1984600802610e52565b1980831691505092915050565b5f610e858383610e5e565b9150826002028217905092915050565b610e9e82610c47565b67ffffffffffffffff811115610eb757610eb6610c51565b5b610ec18254610cab565b610ecc828285610dff565b5f60209050601f831160018114610efd575f8415610eeb578287015190505b610ef58582610e7a565b865550610f5c565b601f198416610f0b86610cdb565b5f5b82811015610f3257848901518255600182019150602085019450602081019050610f0d565b86831015610f4f5784890151610f4b601f891682610e5e565b8355505b6001600288020188555050505b505050505050565b5f819050919050565b610f7681610f64565b82525050565b610f8581610d59565b82525050565b610f9481610b71565b82525050565b5f60a082019050610fad5f830188610f6d565b610fba6020830187610f6d565b610fc76040830186610f6d565b610fd46060830185610f7c565b610fe16080830184610f8b565b9695505050505050565b5f65ffffffffffff82169050919050565b5f61101661101161100c84610feb565b610d62565b610d59565b9050919050565b61102681610ffc565b82525050565b5f60408201905061103f5f83018561101d565b61104c602083018461101d565b9392505050565b5f819050919050565b5f61107661107161106c84611053565b610d62565b610d59565b9050919050565b6110868161105c565b82525050565b5f60208201905061109f5f83018461107d565b92915050565b5f63ffffffff82169050919050565b5f6110ce6110c96110c4846110a5565b610d62565b610d59565b9050919050565b6110de816110b4565b82525050565b5f6040820190506110f75f8301856110d5565b61110460208301846110d5565b9392505050565b5f60408201905061111e5f830185610f7c565b61112b6020830184610f7c565b9392505050565b5f6040820190506111455f830185610f8b565b6111526020830184610f8b565b9392505050565b5f82825260208201905092915050565b8281835e5f83830152505050565b5f601f19601f8301169050919050565b5f61119182610c47565b61119b8185611159565b93506111ab818560208601611169565b6111b481611177565b840191505092915050565b5f6020820190508181035f8301526111d78184611187565b905092915050565b5f81519050919050565b5f819050602082019050919050565b5f6112038251610f64565b80915050919050565b5f611216826111df565b82611220846111e9565b905061122b816111f8565b9250602082101561126b576112667fffffffffffffffffffffffffffffffffffffffffffffffffffffffffffffffff83602003600802610cfc565b831692505b5050919050565b61127b81610feb565b8114611285575f5ffd5b50565b5f8151905061129681611272565b92915050565b5f602082840312156112b1576112b0610b4e565b5b5f6112be84828501611288565b91505092915050565b5f819050919050565b5f60ff82169050919050565b5f6112f66112f16112ec846112c7565b610d62565b6112d0565b9050919050565b611306816112dc565b82525050565b5f60408201905061131f5f8301856112fd565b61132c6020830184610f7c565b9392505050565b7f4e487b71000000000000000000000000000000000000000000000000000000005f52601160045260245ffd5b5f61136a82610d59565b915061137583610d59565b925082820390508181111561138d5761138c611333565b5b92915050565b5f819050919050565b5f6113b66113b16113ac84611393565b610d62565b6112d0565b9050919050565b6113c68161139c565b82525050565b5f6040820190506113df5f8301856113bd565b6113ec6020830184610f7c565b9392505050565b60805160a05160c05160e05161010051610120516101405161016051616f5f61144e5f395f611e7d01525f612b2e01525f612af301525f61491c01525f6148fb01525f61437401525f6143ca01525f6143f30152616f5f5ff3fe6080604052600436106102b1575f3560e01c80637ecebe0011610174578063bc197c81116100db578063deaaa7cc11610094578063ece40cc11161006e578063ece40cc114610c44578063f23a6e6114610c6c578063f8ce560a14610ca8578063fc0c546a14610ce457610324565b8063deaaa7cc14610bb6578063e540d01d14610be0578063eb9019d414610c0857610324565b8063bc197c8114610a92578063c01f9e3714610ace578063c28bc2fa14610b0a578063c59057e414610b26578063d33219b414610b62578063dd4e2ba514610b8c57610324565b8063a7713a701161012d578063a7713a7014610962578063a890c9101461098c578063a8f8a668146109b4578063a9a95294146109f0578063ab58fb8e14610a2c578063b58131b014610a6857610324565b80637ecebe001461082a57806384b0196e146108665780638ff262e31461089657806391ddadf4146108d257806397c3d334146108fc5780639a802a6d1461092657610324565b806343859632116102185780635b8d0e0d116101d15780635b8d0e0d146106d65780635f398a141461071257806360c4247f1461074e578063790518871461078a5780637b3c71d3146107b25780637d5e81e2146107ee57610324565b80634385963214610590578063452115d6146105cc5780634bf5d7e914610608578063544ffc9c1461063257806354fd4d5014610670578063567813881461069a57610324565b8063160cbed71161026a578063160cbed7146104585780632656227d146104945780632d63f693146104c45780632fe3e261146105005780633932abb11461052a5780633e4f49e61461055457610324565b806301ffc9a71461032857806302a251a31461036457806306f3f9e61461038e57806306fdde03146103b6578063143489d0146103e0578063150b7a021461041c57610324565b36610324573073ffffffffffffffffffffffffffffffffffffffff166102d5610d0e565b73ffffffffffffffffffffffffffffffffffffffff1614610322576040517fe90a651e00000000000000000000000000000000000000000000000000000000815260040160405180910390fd5b005b5f5ffd5b348015610333575f5ffd5b5061034e60048036038101906103499190614bb8565b610d1c565b60405161035b9190614bfd565b60405180910390f35b34801561036f575f5ffd5b50610378610e6e565b6040516103859190614c2e565b60405180910390f35b348015610399575f5ffd5b506103b460048036038101906103af9190614c71565b610e77565b005b3480156103c1575f5ffd5b506103ca610e8b565b6040516103d79190614d0c565b60405180910390f35b3480156103eb575f5ffd5b5061040660048036038101906104019190614c71565b610f1b565b6040516104139190614d6b565b60405180910390f35b348015610427575f5ffd5b50610442600480360381019061043d9190614eda565b610f56565b60405161044f9190614f69565b60405180910390f35b348015610463575f5ffd5b5061047e60048036038101906104799190615217565b610fd5565b60405161048b9190614c2e565b60405180910390f35b6104ae60048036038101906104a99190615217565b6110cb565b6040516104bb9190614c2e565b60405180910390f35b3480156104cf575f5ffd5b506104ea60048036038101906104e59190614c71565b6112a8565b6040516104f79190614c2e565b60405180910390f35b34801561050b575f5ffd5b506105146112de565b60405161052191906152de565b60405180910390f35b348015610535575f5ffd5b5061053e611302565b60405161054b9190614c2e565b60405180910390f35b34801561055f575f5ffd5b5061057a60048036038101906105759190614c71565b61130a565b604051610587919061536a565b60405180910390f35b34801561059b575f5ffd5b506105b660048036038101906105b19190615383565b61131b565b6040516105c39190614bfd565b60405180910390f35b3480156105d7575f5ffd5b506105f260048036038101906105ed9190615217565b611380565b6040516105ff9190614c2e565b60405180910390f35b348015610613575f5ffd5b5061061c611400565b6040516106299190614d0c565b60405180910390f35b34801561063d575f5ffd5b5061065860048036038101906106539190614c71565b6114bd565b604051610667939291906153c1565b60405180910390f35b34801561067b575f5ffd5b506106846114f0565b6040516106919190614d0c565b60405180910390f35b3480156106a5575f5ffd5b506106c060048036038101906106bb919061542c565b61152d565b6040516106cd9190614c2e565b60405180910390f35b3480156106e1575f5ffd5b506106fc60048036038101906106f791906154c3565b61155c565b6040516107099190614c2e565b60405180910390f35b34801561071d575f5ffd5b50610738600480360381019061073391906155a5565b61164c565b6040516107459190614c2e565b60405180910390f35b348015610759575f5ffd5b50610774600480360381019061076f9190614c71565b6116b4565b6040516107819190614c2e565b60405180910390f35b348015610795575f5ffd5b506107b060048036038101906107ab9190615680565b6116c7565b005b3480156107bd575f5ffd5b506107d860048036038101906107d391906156ab565b6116db565b6040516107e59190614c2e565b60405180910390f35b3480156107f9575f5ffd5b50610814600480360381019061080f91906157ba565b611741565b6040516108219190614c2e565b60405180910390f35b348015610835575f5ffd5b50610850600480360381019061084b919061588e565b611837565b60405161085d9190614c2e565b60405180910390f35b348015610871575f5ffd5b5061087a61187d565b60405161088d97969594939291906159aa565b60405180910390f35b3480156108a1575f5ffd5b506108bc60048036038101906108b79190615a2c565b611922565b6040516108c99190614c2e565b60405180910390f35b3480156108dd575f5ffd5b506108e6611994565b6040516108f39190615abb565b60405180910390f35b348015610907575f5ffd5b50610910611a1f565b60405161091d9190614c2e565b60405180910390f35b348015610931575f5ffd5b5061094c60048036038101906109479190615ad4565b611a27565b6040516109599190614c2e565b60405180910390f35b34801561096d575f5ffd5b50610976611a3c565b6040516109839190614c2e565b60405180910390f35b348015610997575f5ffd5b506109b260048036038101906109ad9190615b8c565b611a68565b005b3480156109bf575f5ffd5b506109da60048036038101906109d59190615217565b611a7c565b6040516109e79190614c2e565b60405180910390f35b3480156109fb575f5ffd5b50610a166004803603810190610a119190614c71565b611a93565b604051610a239190614bfd565b60405180910390f35b348015610a37575f5ffd5b50610a526004803603810190610a4d9190614c71565b611aa4565b604051610a5f9190614c2e565b60405180910390f35b348015610a73575f5ffd5b50610a7c611ada565b604051610a899190614c2e565b60405180910390f35b348015610a9d575f5ffd5b50610ab86004803603810190610ab39190615bb7565b611ae1565b604051610ac59190614f69565b60405180910390f35b348015610ad9575f5ffd5b50610af46004803603810190610aef9190614c71565b611b61565b604051610b019190614c2e565b60405180910390f35b610b246004803603810190610b1f9190615cd7565b611bcb565b005b348015610b31575f5ffd5b50610b4c6004803603810190610b479190615217565b611c54565b604051610b599190614c2e565b60405180910390f35b348015610b6d575f5ffd5b50610b76611c8e565b604051610b839190614d6b565b60405180910390f35b348015610b97575f5ffd5b50610ba0611cb6565b604051610bad9190614d0c565b60405180910390f35b348015610bc1575f5ffd5b50610bca611cf3565b604051610bd791906152de565b60405180910390f35b348015610beb575f5ffd5b50610c066004803603810190610c019190615d81565b611d17565b005b348015610c13575f5ffd5b50610c2e6004803603810190610c299190615dac565b611d2b565b604051610c3b9190614c2e565b60405180910390f35b348015610c4f575f5ffd5b50610c6a6004803603810190610c659190614c71565b611d46565b005b348015610c77575f5ffd5b50610c926004803603810190610c8d9190615dea565b611d5a565b604051610c9f9190614f69565b60405180910390f35b348015610cb3575f5ffd5b50610cce6004803603810190610cc99190614c71565b611dda565b604051610cdb9190614c2e565b60405180910390f35b348015610cef575f5ffd5b50610cf8611e7a565b604051610d059190615ed8565b60405180910390f35b5f610d17611ea1565b905090565b5f7fcdbdfcee000000000000000000000000000000000000000000000000000000007bffffffffffffffffffffffffffffffffffffffffffffffffffffffff1916827bffffffffffffffffffffffffffffffffffffffffffffffffffffffff19161480610def575063a8f8a66860e01b7fcdbdfcee00000000000000000000000000000000000000000000000000000000187bffffffffffffffffffffffffffffffffffffffffffffffffffffffff1916827bffffffffffffffffffffffffffffffffffffffffffffffffffffffff1916145b80610e5757507f4e2312e0000000000000000000000000000000000000000000000000000000007bffffffffffffffffffffffffffffffffffffffffffffffffffffffff1916827bffffffffffffffffffffffffffffffffffffffffffffffffffffffff1916145b80610e675750610e6682611ec9565b5b9050919050565b5f61c4e0905090565b610e7f611f32565b610e8881612027565b50565b606060038054610e9a90615f1e565b80601f0160208091040260200160405190810160405280929190818152602001828054610ec690615f1e565b8015610f115780601f10610ee857610100808354040283529160200191610f11565b820191905f5260205f20905b815481529060010190602001808311610ef457829003601f168201915b5050505050905090565b5f60045f8381526020019081526020015f205f015f9054906101000a900473ffffffffffffffffffffffffffffffffffffffff169050919050565b5f3073ffffffffffffffffffffffffffffffffffffffff16610f76610d0e565b73ffffffffffffffffffffffffffffffffffffffff1614610fc3576040517fe90a651e00000000000000000000000000000000000000000000000000000000815260040160405180910390fd5b63150b7a0260e01b9050949350505050565b5f5f610fe386868686611a7c565b9050610ff881610ff360046120e9565b61210d565b505f6110078288888888612178565b90505f8165ffffffffffff161461108c578060045f8481526020019081526020015f206001015f6101000a81548165ffffffffffff021916908365ffffffffffff1602179055507f9a2e42fd6722813d69113e7d0079d3d940171428df7373df9c7f7617cfda2892828260405161107f929190615f7e565b60405180910390a16110be565b6040517f90884a4600000000000000000000000000000000000000000000000000000000815260040160405180910390fd5b8192505050949350505050565b5f5f6110d986868686611a7c565b90506110f9816110e960056120e9565b6110f360046120e9565b1761210d565b50600160045f8381526020019081526020015f205f01601e6101000a81548160ff0219169083151502179055503073ffffffffffffffffffffffffffffffffffffffff16611145610d0e565b73ffffffffffffffffffffffffffffffffffffffff16146111fe575f5f90505b86518110156111fc573073ffffffffffffffffffffffffffffffffffffffff1687828151811061119857611197615fa5565b5b602002602001015173ffffffffffffffffffffffffffffffffffffffff16036111f1576111f08582815181106111d1576111d0615fa5565b5b602002602001015180519060200120600561219190919063ffffffff16565b5b806001019050611165565b505b61120b81878787876121b3565b3073ffffffffffffffffffffffffffffffffffffffff1661122a610d0e565b73ffffffffffffffffffffffffffffffffffffffff1614158015611255575061125360056121c7565b155b15611265576112646005612233565b5b7f712ae1383f79ac853f8d882153778e0260ef8f03b504e2866e0593e04d2b291f816040516112949190614c2e565b60405180910390a180915050949350505050565b5f60045f8381526020019081526020015f205f0160149054906101000a900465ffffffffffff1665ffffffffffff169050919050565b7f3e83946653575f9a39005e1545185629e92736b7528ab20ca3816f315424a81181565b5f6001905090565b5f611314826122a9565b9050919050565b5f60095f8481526020019081526020015f206003015f8373ffffffffffffffffffffffffffffffffffffffff1673ffffffffffffffffffffffffffffffffffffffff1681526020019081526020015f205f9054906101000a900460ff16905092915050565b5f5f61138e86868686611a7c565b90505f61139961245e565b90506113a58282612465565b6113e85781816040517f8fe5d8a90000000000000000000000000000000000000000000000000000000081526004016113df929190615fd2565b60405180910390fd5b6113f4878787876124dc565b92505050949350505050565b606061140a611e7a565b73ffffffffffffffffffffffffffffffffffffffff16634bf5d7e96040518163ffffffff1660e01b81526004015f60405180830381865afa92505050801561147457506040513d5f823e3d601f19601f820116820180604052508101906114719190616067565b60015b6114b5576040518060400160405280601d81526020017f6d6f64653d626c6f636b6e756d6265722666726f6d3d64656661756c7400000081525090506114ba565b809150505b90565b5f5f5f5f60095f8681526020019081526020015f209050805f015481600101548260020154935093509350509193909250565b60606040518060400160405280600181526020017f3100000000000000000000000000000000000000000000000000000000000000815250905090565b5f5f61153761245e565b905061155384828560405180602001604052805f8152506124f3565b91505092915050565b5f6115ae88888888888080601f0160208091040260200160405190810160405280939291908181526020018383808284375f81840152601f19601f820116905080830192505050505050508787612512565b6115ef57856040517f94ab6c070000000000000000000000000000000000000000000000000000000081526004016115e69190614d6b565b60405180910390fd5b61163f88878988888080601f0160208091040260200160405190810160405280939291908181526020018383808284375f81840152601f19601f820116905080830192505050505050508761259a565b9050979650505050505050565b5f5f61165661245e565b90506116a887828888888080601f0160208091040260200160405190810160405280939291908181526020018383808284375f81840152601f19601f820116905080830192505050505050508761259a565b91505095945050505050565b5f6116c0600a836126a4565b9050919050565b6116cf611f32565b6116d88161270d565b50565b5f5f6116e561245e565b905061173686828787878080601f0160208091040260200160405190810160405280939291908181526020018383808284375f81840152601f19601f820116905080830192505050505050506124f3565b915050949350505050565b5f5f61174b61245e565b90506117578184612780565b61179857806040517fd9b3955700000000000000000000000000000000000000000000000000000000815260040161178f9190614d6b565b60405180910390fd5b5f6117a1611ada565b90505f81111561181e575f6117d18360016117ba611994565b6117c491906160db565b65ffffffffffff16611d2b565b90508181101561181c578281836040517fc242ee1600000000000000000000000000000000000000000000000000000000815260040161181393929190616114565b60405180910390fd5b505b61182b8787878786612866565b92505050949350505050565b5f60025f8373ffffffffffffffffffffffffffffffffffffffff1673ffffffffffffffffffffffffffffffffffffffff1681526020019081526020015f20549050919050565b5f6060805f5f5f606061188e612aeb565b611896612b25565b46305f5f1b5f67ffffffffffffffff8111156118b5576118b4614db6565b5b6040519080825280602002602001820160405280156118e35781602001602082028036833780820191505090505b507f0f00000000000000000000000000000000000000000000000000000000000000959493929190965096509650965096509650965090919293949596565b5f61192f85858585612b60565b61197057826040517f94ab6c070000000000000000000000000000000000000000000000000000000081526004016119679190614d6b565b60405180910390fd5b61198a85848660405180602001604052805f8152506124f3565b9050949350505050565b5f61199d611e7a565b73ffffffffffffffffffffffffffffffffffffffff166391ddadf46040518163ffffffff1660e01b8152600401602060405180830381865afa925050508015611a0457506040513d601f19601f82011682018060405250810190611a01919061615d565b60015b611a1757611a10612bd4565b9050611a1c565b809150505b90565b5f6064905090565b5f611a33848484612be3565b90509392505050565b5f611a47600a612c6e565b79ffffffffffffffffffffffffffffffffffffffffffffffffffff16905090565b611a70611f32565b611a7981612cd0565b50565b5f611a8985858585611c54565b9050949350505050565b5f611a9d82612d6d565b9050919050565b5f60045f8381526020019081526020015f206001015f9054906101000a900465ffffffffffff1665ffffffffffff169050919050565b5f5f905090565b5f3073ffffffffffffffffffffffffffffffffffffffff16611b01610d0e565b73ffffffffffffffffffffffffffffffffffffffff1614611b4e576040517fe90a651e00000000000000000000000000000000000000000000000000000000815260040160405180910390fd5b63bc197c8160e01b905095945050505050565b5f60045f8381526020019081526020015f205f01601a9054906101000a900463ffffffff1663ffffffff1660045f8481526020019081526020015f205f0160149054906101000a900465ffffffffffff16611bbc9190616188565b65ffffffffffff169050919050565b611bd3611f32565b5f5f8573ffffffffffffffffffffffffffffffffffffffff16858585604051611bfd9291906161ef565b5f6040518083038185875af1925050503d805f8114611c37576040519150601f19603f3d011682016040523d82523d5f602084013e611c3c565b606091505b5091509150611c4b8282612d77565b50505050505050565b5f84848484604051602001611c6c94939291906163cb565b604051602081830303815290604052805190602001205f1c9050949350505050565b5f600b5f9054906101000a900473ffffffffffffffffffffffffffffffffffffffff16905090565b60606040518060400160405280602081526020017f737570706f72743d627261766f2671756f72756d3d666f722c6162737461696e815250905090565b7ff2aad550cf55f045cb27e9c559f9889fdfb6e6cdaa032301d6ea397784ae51d781565b611d1f611f32565b611d2881612dd7565b50565b5f611d3e8383611d39612e90565b612be3565b905092915050565b611d4e611f32565b611d5781612ea6565b50565b5f3073ffffffffffffffffffffffffffffffffffffffff16611d7a610d0e565b73ffffffffffffffffffffffffffffffffffffffff1614611dc7576040517fe90a651e00000000000000000000000000000000000000000000000000000000815260040160405180910390fd5b63f23a6e6160e01b905095945050505050565b5f611e73611de6611e7a565b73ffffffffffffffffffffffffffffffffffffffff16638e539e8c846040518263ffffffff1660e01b8152600401611e1e9190614c2e565b602060405180830381865afa158015611e39573d5f5f3e3d5ffd5b505050506040513d601f19601f82011682018060405250810190611e5d9190616437565b611e66846116b4565b611e6e611a1f565b612eeb565b9050919050565b5f7f0000000000000000000000000000000000000000000000000000000000000000905090565b5f600b5f9054906101000a900473ffffffffffffffffffffffffffffffffffffffff16905090565b5f7f01ffc9a7000000000000000000000000000000000000000000000000000000007bffffffffffffffffffffffffffffffffffffffffffffffffffffffff1916827bffffffffffffffffffffffffffffffffffffffffffffffffffffffff1916149050919050565b611f3a61245e565b73ffffffffffffffffffffffffffffffffffffffff16611f58610d0e565b73ffffffffffffffffffffffffffffffffffffffff1614611fb757611f7b61245e565b6040517f47096e47000000000000000000000000000000000000000000000000000000008152600401611fae9190614d6b565b60405180910390fd5b3073ffffffffffffffffffffffffffffffffffffffff16611fd6610d0e565b73ffffffffffffffffffffffffffffffffffffffff1614612025575f611ffa612fca565b6040516120089291906161ef565b604051809103902090505b8061201e6005612fd6565b0361201357505b565b5f612030611a1f565b9050808211156120795781816040517f243e5445000000000000000000000000000000000000000000000000000000008152600401612070929190616462565b60405180910390fd5b5f612082611a3c565b90506120a961208f611994565b61209885613000565b600a61306d9092919063ffffffff16565b50507f0553476bf02ef2726e8ce5ced78d63e26e602e4a2257b1f559418e24b463399781846040516120dc929190616462565b60405180910390a1505050565b5f8160078111156120fd576120fc6152f7565b5b60ff166001901b5f1b9050919050565b5f5f6121188461130a565b90505f5f1b83612127836120e9565b160361216e578381846040517f31b75e4d00000000000000000000000000000000000000000000000000000000815260040161216593929190616489565b60405180910390fd5b8091505092915050565b5f6121868686868686613088565b905095945050505050565b5f61219c838361328e565b9050806121ae576121ad604161338c565b5b505050565b6121c0858585858561339d565b5050505050565b5f815f015f9054906101000a90046fffffffffffffffffffffffffffffffff166fffffffffffffffffffffffffffffffff16825f0160109054906101000a90046fffffffffffffffffffffffffffffffff166fffffffffffffffffffffffffffffffff16149050919050565b5f815f015f6101000a8154816fffffffffffffffffffffffffffffffff02191690836fffffffffffffffffffffffffffffffff1602179055505f815f0160106101000a8154816fffffffffffffffffffffffffffffffff02191690836fffffffffffffffffffffffffffffffff16021790555050565b5f5f6122b483613451565b9050600560078111156122ca576122c96152f7565b5b8160078111156122dd576122dc6152f7565b5b146122eb5780915050612459565b5f600c5f8581526020019081526020015f20549050600b5f9054906101000a900473ffffffffffffffffffffffffffffffffffffffff1673ffffffffffffffffffffffffffffffffffffffff1663584b153e826040518263ffffffff1660e01b815260040161235a91906152de565b602060405180830381865afa158015612375573d5f5f3e3d5ffd5b505050506040513d601f19601f8201168201806040525081019061239991906164e8565b156123a957600592505050612459565b600b5f9054906101000a900473ffffffffffffffffffffffffffffffffffffffff1673ffffffffffffffffffffffffffffffffffffffff16632ab0f529826040518263ffffffff1660e01b815260040161240391906152de565b602060405180830381865afa15801561241e573d5f5f3e3d5ffd5b505050506040513d601f19601f8201168201806040525081019061244291906164e8565b1561245257600792505050612459565b6002925050505b919050565b5f33905090565b5f5f6007811115612479576124786152f7565b5b6124828461130a565b6007811115612494576124936152f7565b5b1480156124d457506124a583610f1b565b73ffffffffffffffffffffffffffffffffffffffff168273ffffffffffffffffffffffffffffffffffffffff16145b905092915050565b5f6124e9858585856135a8565b9050949350505050565b5f61250885858585612503612e90565b61259a565b9050949350505050565b5f61258e856125887f3e83946653575f9a39005e1545185629e92736b7528ab20ca3816f315424a8118a8a8a6125478c61367f565b8b805190602001208b8051906020012060405160200161256d9796959493929190616522565b604051602081830303815290604052805190602001206136d2565b846136eb565b90509695505050505050565b5f6125ae866125a960016120e9565b61210d565b505f6125c3866125bd896112a8565b85612be3565b90505f6125d38888888588613797565b90505f845103612636578673ffffffffffffffffffffffffffffffffffffffff167fb8e138887d0aa13bab447e82de9d5c1777041ecd21ca36ba824ff1e6c07ddda489888489604051612629949392919061658f565b60405180910390a261268d565b8673ffffffffffffffffffffffffffffffffffffffff167fe2babfbac5889a709b63bb7f598b324e08bc5a4fb9ec647fb3cbc9ec07eb87128988848989604051612684959493929190616621565b60405180910390a25b6126968861398c565b809250505095945050505050565b5f5f5f6126b08561398f565b9250925050838265ffffffffffff1611156126e5576126e06126d185613a1e565b86613a7790919063ffffffff16565b6126e7565b805b79ffffffffffffffffffffffffffffffffffffffffffffffffffff169250505092915050565b7fc565b045403dc03c2eea82b81a0465edad9e2e7fc4d97e11421c209da93d7a9360085f9054906101000a900465ffffffffffff1682604051612751929190616680565b60405180910390a18060085f6101000a81548165ffffffffffff021916908365ffffffffffff16021790555050565b5f5f825190506034811015612799576001915050612860565b5f6127a78460348403613b67565b90507f2370726f706f7365723d0000000000000000000000000000000000000000000075ffffffffffffffffffffffffffffffffffffffffffff19168175ffffffffffffffffffffffffffffffffffffffffffff19161461280d57600192505050612860565b5f5f61281d86602a860386613b77565b9150915081158061285957508673ffffffffffffffffffffffffffffffffffffffff168173ffffffffffffffffffffffffffffffffffffffff16145b9450505050505b92915050565b5f61287a8686868680519060200120611a7c565b90508451865114158061288f57508351865114155b8061289a57505f8651145b156128e3578551845186516040517f447b05d00000000000000000000000000000000000000000000000000000000081526004016128da939291906153c1565b60405180910390fd5b5f60045f8381526020019081526020015f205f0160149054906101000a900465ffffffffffff1665ffffffffffff161461296257806129218261130a565b5f5f1b6040517f31b75e4d00000000000000000000000000000000000000000000000000000000815260040161295993929190616489565b60405180910390fd5b5f61296b611302565b612973611994565b65ffffffffffff1661298591906166a7565b90505f612990610e6e565b90505f60045f8581526020019081526020015f20905084815f015f6101000a81548173ffffffffffffffffffffffffffffffffffffffff021916908373ffffffffffffffffffffffffffffffffffffffff1602179055506129f083613a1e565b815f0160146101000a81548165ffffffffffff021916908365ffffffffffff160217905550612a1e82613c88565b815f01601a6101000a81548163ffffffff021916908363ffffffff1602179055507f7d84a6263ae0d98d3329bd7b46bb4e8d6f98cd35a7adb45c274c8b7fd5ebd5e084868b8b8d5167ffffffffffffffff811115612a7f57612a7e614db6565b5b604051908082528060200260200182016040528015612ab257816020015b6060815260200190600190039081612a9d5790505b508c89898b612ac191906166a7565b8e604051612ad7999897969594939291906167dd565b60405180910390a150505095945050505050565b6060612b205f7f0000000000000000000000000000000000000000000000000000000000000000613cdf90919063ffffffff16565b905090565b6060612b5b60017f0000000000000000000000000000000000000000000000000000000000000000613cdf90919063ffffffff16565b905090565b5f612bca83612bc47ff2aad550cf55f045cb27e9c559f9889fdfb6e6cdaa032301d6ea397784ae51d7888888612b958a61367f565b604051602001612ba995949392919061688b565b604051602081830303815290604052805190602001206136d2565b846136eb565b9050949350505050565b5f612bde43613a1e565b905090565b5f612bec611e7a565b73ffffffffffffffffffffffffffffffffffffffff16633a46b1a885856040518363ffffffff1660e01b8152600401612c269291906168dc565b602060405180830381865afa158015612c41573d5f5f3e3d5ffd5b505050506040513d601f19601f82011682018060405250810190612c659190616437565b90509392505050565b5f5f825f018054905090505f8114612cc657612c98835f01600183612c939190616903565b613d8c565b5f0160069054906101000a900479ffffffffffffffffffffffffffffffffffffffffffffffffffff16612cc8565b5f5b915050919050565b7f08f74ea46ef7894f65eabfb5e6e695de773a000b47c529ab559178069b226401600b5f9054906101000a900473ffffffffffffffffffffffffffffffffffffffff1682604051612d22929190616936565b60405180910390a180600b5f6101000a81548173ffffffffffffffffffffffffffffffffffffffff021916908373ffffffffffffffffffffffffffffffffffffffff16021790555050565b5f60019050919050565b60608215612d8757819050612dd1565b5f82511115612d9e57612d9982613d9e565b612dd0565b6040517fd6bda27500000000000000000000000000000000000000000000000000000000815260040160405180910390fd5b5b92915050565b5f8163ffffffff1603612e21575f6040517ff1cfbf05000000000000000000000000000000000000000000000000000000008152600401612e189190616996565b60405180910390fd5b7f7e3f7f0708a84de9203036abaa450dccc85ad5ff52f78c170f3edb55cf5e8828600860069054906101000a900463ffffffff1682604051612e649291906169df565b60405180910390a180600860066101000a81548163ffffffff021916908363ffffffff16021790555050565b606060405180602001604052805f815250905090565b7fccb45da8d5717e6c4544694297c4ba5cf151d455c9bb0ed4fc7a38411bc0546160075482604051612ed9929190616462565b60405180910390a18060078190555050565b5f5f5f612ef88686613da6565b915091505f8203612f1d57838181612f1357612f12616a06565b5b0492505050612fc3565b818411612f3c57612f3b612f365f861460126011613dc3565b61338c565b5b5f8486880990508181118303925080820391505f855f038616905080860495508083049250600181825f0304019050808402831792505f600287600302189050808702600203810290508087026002038102905080870260020381029050808702600203810290508087026002038102905080870260020381029050808402955050505050505b9392505050565b365f5f36915091509091565b5f5f5f612fe284613ddc565b9150915081612ff657612ff5603161338c565b5b8092505050919050565b5f79ffffffffffffffffffffffffffffffffffffffffffffffffffff80168211156130655760d0826040517f6dfcc65000000000000000000000000000000000000000000000000000000000815260040161305c929190616a6c565b60405180910390fd5b819050919050565b5f5f61307c855f018585613f13565b91509150935093915050565b5f5f600b5f9054906101000a900473ffffffffffffffffffffffffffffffffffffffff1673ffffffffffffffffffffffffffffffffffffffff1663f27a0c926040518163ffffffff1660e01b8152600401602060405180830381865afa1580156130f4573d5f5f3e3d5ffd5b505050506040513d601f19601f820116820180604052508101906131189190616437565b90505f61312484614207565b9050600b5f9054906101000a900473ffffffffffffffffffffffffffffffffffffffff1673ffffffffffffffffffffffffffffffffffffffff1663b1c5f4278888885f866040518663ffffffff1660e01b8152600401613188959493929190616ace565b602060405180830381865afa1580156131a3573d5f5f3e3d5ffd5b505050506040513d601f19601f820116820180604052508101906131c79190616b48565b600c5f8a81526020019081526020015f2081905550600b5f9054906101000a900473ffffffffffffffffffffffffffffffffffffffff1673ffffffffffffffffffffffffffffffffffffffff16638f2a0bb08888885f86886040518763ffffffff1660e01b815260040161324096959493929190616b73565b5f604051808303815f87803b158015613257575f5ffd5b505af1158015613269573d5f5f3e3d5ffd5b50505050613281824261327c91906166a7565b613a1e565b9250505095945050505050565b5f5f835f0160109054906101000a90046fffffffffffffffffffffffffffffffff169050835f015f9054906101000a90046fffffffffffffffffffffffffffffffff166fffffffffffffffffffffffffffffffff16600182016fffffffffffffffffffffffffffffffff1603613307575f915050613386565b82846001015f836fffffffffffffffffffffffffffffffff166fffffffffffffffffffffffffffffffff1681526020019081526020015f208190555060018101845f0160106101000a8154816fffffffffffffffffffffffffffffffff02191690836fffffffffffffffffffffffffffffffff16021790555060019150505b92915050565b634e487b715f52806020526024601cfd5b600b5f9054906101000a900473ffffffffffffffffffffffffffffffffffffffff1673ffffffffffffffffffffffffffffffffffffffff1663e38335e5348686865f6133e888614207565b6040518763ffffffff1660e01b8152600401613408959493929190616ace565b5f604051808303818588803b15801561341f575f5ffd5b505af1158015613431573d5f5f3e3d5ffd5b5050505050600c5f8681526020019081526020015f205f90555050505050565b5f5f60045f8481526020019081526020015f2090505f815f01601e9054906101000a900460ff1690505f825f01601f9054906101000a900460ff16905081156134a057600793505050506135a3565b80156134b257600293505050506135a3565b5f6134bc866112a8565b90505f810361350257856040517f6ad060750000000000000000000000000000000000000000000000000000000081526004016134f99190614c2e565b60405180910390fd5b5f61350b611994565b65ffffffffffff169050808210613529575f955050505050506135a3565b5f61353388611b61565b905081811061354b57600196505050505050506135a3565b61355488614224565b1580613566575061356488614268565b155b1561357a57600396505050505050506135a3565b5f61358489611aa4565b0361359857600496505050505050506135a3565b600596505050505050505b919050565b5f5f6135b68686868661428f565b90505f600c5f8381526020019081526020015f205490505f5f1b811461367257600b5f9054906101000a900473ffffffffffffffffffffffffffffffffffffffff1673ffffffffffffffffffffffffffffffffffffffff1663c4d252f5826040518263ffffffff1660e01b815260040161363091906152de565b5f604051808303815f87803b158015613647575f5ffd5b505af1158015613659573d5f5f3e3d5ffd5b50505050600c5f8381526020019081526020015f205f90555b8192505050949350505050565b5f60025f8373ffffffffffffffffffffffffffffffffffffffff1673ffffffffffffffffffffffffffffffffffffffff1681526020019081526020015f205f815480929190600101919050559050919050565b5f6136e46136de614371565b83614427565b9050919050565b5f5f8473ffffffffffffffffffffffffffffffffffffffff163b03613782575f5f6137168585614467565b50915091505f600381111561372e5761372d6152f7565b5b816003811115613741576137406152f7565b5b14801561377957508573ffffffffffffffffffffffffffffffffffffffff168273ffffffffffffffffffffffffffffffffffffffff16145b92505050613790565b61378d8484846144bc565b90505b9392505050565b5f5f60095f8881526020019081526020015f209050806003015f8773ffffffffffffffffffffffffffffffffffffffff1673ffffffffffffffffffffffffffffffffffffffff1681526020019081526020015f205f9054906101000a900460ff161561383a57856040517f71c6af490000000000000000000000000000000000000000000000000000000081526004016138319190614d6b565b60405180910390fd5b6001816003015f8873ffffffffffffffffffffffffffffffffffffffff1673ffffffffffffffffffffffffffffffffffffffff1681526020019081526020015f205f6101000a81548160ff0219169083151502179055505f60028111156138a4576138a36152f7565b5b60ff168560ff16036138ce5783815f015f8282546138c291906166a7565b9250508190555061397f565b600160028111156138e2576138e16152f7565b5b60ff168560ff160361390d5783816001015f82825461390191906166a7565b9250508190555061397e565b6002808111156139205761391f6152f7565b5b60ff168560ff160361394b5783816002015f82825461393f91906166a7565b9250508190555061397d565b6040517f06b337c200000000000000000000000000000000000000000000000000000000815260040160405180910390fd5b5b5b8391505095945050505050565b50565b5f5f5f5f845f018054905090505f81036139b2575f5f5f93509350935050613a17565b5f6139cb865f016001846139c69190616903565b613d8c565b90506001815f015f9054906101000a900465ffffffffffff16825f0160069054906101000a900479ffffffffffffffffffffffffffffffffffffffffffffffffffff1694509450945050505b9193909250565b5f65ffffffffffff8016821115613a6f576030826040517f6dfcc650000000000000000000000000000000000000000000000000000000008152600401613a66929190616c20565b60405180910390fd5b819050919050565b5f5f835f018054905090505f5f90505f8290506005831115613afb575f613a9d8461450d565b84613aa89190616903565b9050613ab6875f0182613d8c565b5f015f9054906101000a900465ffffffffffff1665ffffffffffff168665ffffffffffff161015613ae957809150613af9565b600181613af691906166a7565b92505b505b5f613b0a875f018785856146a7565b90505f8114613b5957613b2b875f01600183613b269190616903565b613d8c565b5f0160069054906101000a900479ffffffffffffffffffffffffffffffffffffffffffffffffffff16613b5b565b5f5b94505050505092915050565b5f81602084010151905092915050565b5f5f8451831180613b8757508284115b15613b97575f5f91509150613c80565b5f600185613ba591906166a7565b84118015613c1d57507f30780000000000000000000000000000000000000000000000000000000000007dffffffffffffffffffffffffffffffffffffffffffffffffffffffffffff1916613bfa878761471c565b7dffffffffffffffffffffffffffffffffffffffffffffffffffffffffffff1916145b90505f6002613c2d83151561472c565b613c379190616c47565b6028613c4391906166a7565b9050808686613c529190616903565b03613c77575f5f613c64898989614737565b9150915081819550955050505050613c80565b5f5f9350935050505b935093915050565b5f63ffffffff8016821115613cd7576020826040517f6dfcc650000000000000000000000000000000000000000000000000000000008152600401613cce929190616cc1565b60405180910390fd5b819050919050565b606060ff5f1b8314613cfb57613cf483614865565b9050613d86565b818054613d0790615f1e565b80601f0160208091040260200160405190810160405280929190818152602001828054613d3390615f1e565b8015613d7e5780601f10613d5557610100808354040283529160200191613d7e565b820191905f5260205f20905b815481529060010190602001808311613d6157829003601f168201915b505050505090505b92915050565b5f825f528160205f2001905092915050565b805160208201fd5b5f5f5f198385098385029150818110828203039250509250929050565b5f613dcd8461472c565b82841802821890509392505050565b5f5f5f835f015f9054906101000a90046fffffffffffffffffffffffffffffffff169050835f0160109054906101000a90046fffffffffffffffffffffffffffffffff166fffffffffffffffffffffffffffffffff16816fffffffffffffffffffffffffffffffff1603613e58575f5f5f1b9250925050613f0e565b60019250836001015f826fffffffffffffffffffffffffffffffff166fffffffffffffffffffffffffffffffff1681526020019081526020015f20549150836001015f826fffffffffffffffffffffffffffffffff166fffffffffffffffffffffffffffffffff1681526020019081526020015f205f905560018101845f015f6101000a8154816fffffffffffffffffffffffffffffffff02191690836fffffffffffffffffffffffffffffffff160217905550505b915091565b5f5f5f858054905090505f81111561411f575f613f3c87600184613f379190616903565b613d8c565b90505f815f015f9054906101000a900465ffffffffffff1690505f825f0160069054906101000a900479ffffffffffffffffffffffffffffffffffffffffffffffffffff1690508765ffffffffffff168265ffffffffffff161115613fcd576040517f2520601d00000000000000000000000000000000000000000000000000000000815260040160405180910390fd5b8765ffffffffffff168265ffffffffffff16036140375786835f0160066101000a81548179ffffffffffffffffffffffffffffffffffffffffffffffffffff021916908379ffffffffffffffffffffffffffffffffffffffffffffffffffff160217905550614110565b8860405180604001604052808a65ffffffffffff1681526020018979ffffffffffffffffffffffffffffffffffffffffffffffffffff16815250908060018154018082558091505060019003905f5260205f20015f909190919091505f820151815f015f6101000a81548165ffffffffffff021916908365ffffffffffff1602179055506020820151815f0160066101000a81548179ffffffffffffffffffffffffffffffffffffffffffffffffffff021916908379ffffffffffffffffffffffffffffffffffffffffffffffffffff16021790555050505b808795509550505050506141ff565b8560405180604001604052808765ffffffffffff1681526020018679ffffffffffffffffffffffffffffffffffffffffffffffffffff16815250908060018154018082558091505060019003905f5260205f20015f909190919091505f820151815f015f6101000a81548165ffffffffffff021916908365ffffffffffff1602179055506020820151815f0160066101000a81548179ffffffffffffffffffffffffffffffffffffffffffffffffffff021916908379ffffffffffffffffffffffffffffffffffffffffffffffffffff16021790555050505f8492509250505b935093915050565b5f813060601b6bffffffffffffffffffffffff1916189050919050565b5f5f60095f8481526020019081526020015f2090508060020154816001015461424d91906166a7565b61425e614259856112a8565b611dda565b1115915050919050565b5f5f60095f8481526020019081526020015f209050805f0154816001015411915050919050565b5f5f61429d86868686611a7c565b9050614301816142ad60076120e9565b6142b760066120e9565b6142c160026120e9565b6001806007808111156142d7576142d66152f7565b5b6142e19190616ce8565b60026142ed9190616e4b565b6142f79190616903565b5f1b18181861210d565b50600160045f8381526020019081526020015f205f01601f6101000a81548160ff0219169083151502179055507f789cf55be980739dad1d0699b93b58e806b51c9d96619bfa8fe0a28abaa7b30c8160405161435d9190614c2e565b60405180910390a180915050949350505050565b5f7f000000000000000000000000000000000000000000000000000000000000000073ffffffffffffffffffffffffffffffffffffffff163073ffffffffffffffffffffffffffffffffffffffff161480156143ec57507f000000000000000000000000000000000000000000000000000000000000000046145b15614419577f00000000000000000000000000000000000000000000000000000000000000009050614424565b6144216148d7565b90505b90565b5f6040517f190100000000000000000000000000000000000000000000000000000000000081528360028201528260228201526042812091505092915050565b5f5f5f60418451036144a7575f5f5f602087015192506040870151915060608701515f1a90506144998882858561496c565b9550955095505050506144b5565b5f600285515f1b9250925092505b9250925092565b5f5f631626ba7e60e01b90505f83519050604051828152856004820152604060248201526020820185604483015e60205f60648401838a5afa835f5114601f3d111681169450505050509392505050565b5f6001821161451e578190506146a2565b5f8290505f60019050700100000000000000000000000000000000821061454e57608082901c9150604081901b90505b68010000000000000000821061456d57604082901c9150602081901b90505b640100000000821061458857602082901c9150601081901b90505b6201000082106145a157601082901c9150600881901b90505b61010082106145b957600882901c9150600481901b90505b601082106145d057600482901c9150600281901b90505b600482106145e057600181901b90505b600181600302901c905060018185816145fc576145fb616a06565b5b048201901c9050600181858161461557614614616a06565b5b048201901c9050600181858161462e5761462d616a06565b5b048201901c9050600181858161464757614646616a06565b5b048201901c905060018185816146605761465f616a06565b5b048201901c9050600181858161467957614678616a06565b5b048201901c905061469b81858161469357614692616a06565b5b04821161472c565b8103925050505b919050565b5f5b81831015614711575f6146bc8484614a53565b90508465ffffffffffff166146d18783613d8c565b5f015f9054906101000a900465ffffffffffff1665ffffffffffff1611156146fb5780925061470b565b60018161470891906166a7565b93505b506146a9565b819050949350505050565b5f81602084010151905092915050565b5f8115159050919050565b5f5f5f8590505f60018661474b91906166a7565b851180156147c357507f30780000000000000000000000000000000000000000000000000000000000007dffffffffffffffffffffffffffffffffffffffffffffffffffffffffffff19166147a0838861471c565b7dffffffffffffffffffffffffffffffffffffffffffffffffffffffffffff1916145b90505f60026147d383151561472c565b6147dd9190616c47565b90505f5f90505f82896147f091906166a7565b90505b87811015614850575f61480e614809878461471c565b614a74565b9050600f8160ff16111561482d575f5f9750975050505050505061485d565b60108361483a9190616c47565b92508060ff1683019250508060010190506147f3565b5060018195509550505050505b935093915050565b60605f61487183614b04565b90505f602067ffffffffffffffff81111561488f5761488e614db6565b5b6040519080825280601f01601f1916602001820160405280156148c15781602001600182028036833780820191505090505b5090508181528360208201528092505050919050565b5f7f8b73c3c69bb8fe3d512ecc4cf759cc79239f7b179b0ffacaa9a75d522b39400f7f00000000000000000000000000000000000000000000000000000000000000007f00000000000000000000000000000000000000000000000000000000000000004630604051602001614951959493929190616e95565b60405160208183030381529060405280519060200120905090565b5f5f5f7f7fffffffffffffffffffffffffffffff5d576e7357a4501ddfe92f46681b20a0845f1c11156149a8575f600385925092509250614a49565b5f6001888888886040515f81526020016040526040516149cb9493929190616ee6565b6020604051602081039080840390855afa1580156149eb573d5f5f3e3d5ffd5b5050506020604051035190505f73ffffffffffffffffffffffffffffffffffffffff168173ffffffffffffffffffffffffffffffffffffffff1603614a3c575f60015f5f1b93509350935050614a49565b805f5f5f1b935093509350505b9450945094915050565b5f600282841881614a6757614a66616a06565b5b0482841601905092915050565b5f5f8260f81c9050602f8160ff16118015614a925750603a8160ff16105b15614aa257603081039050614afa565b60608160ff16118015614ab8575060678160ff16105b15614ac857605781039050614af9565b60408160ff16118015614ade575060478160ff16105b15614aee57603781039050614af8565b60ff915050614aff565b5b5b809150505b919050565b5f5f60ff835f1c169050601f811115614b49576040517fb3512b0c00000000000000000000000000000000000000000000000000000000815260040160405180910390fd5b80915050919050565b5f604051905090565b5f5ffd5b5f5ffd5b5f7fffffffff0000000000000000000000000000000000000000000000000000000082169050919050565b614b9781614b63565b8114614ba1575f5ffd5b50565b5f81359050614bb281614b8e565b92915050565b5f60208284031215614bcd57614bcc614b5b565b5b5f614bda84828501614ba4565b91505092915050565b5f8115159050919050565b614bf781614be3565b82525050565b5f602082019050614c105f830184614bee565b92915050565b5f819050919050565b614c2881614c16565b82525050565b5f602082019050614c415f830184614c1f565b92915050565b614c5081614c16565b8114614c5a575f5ffd5b50565b5f81359050614c6b81614c47565b92915050565b5f60208284031215614c8657614c85614b5b565b5b5f614c9384828501614c5d565b91505092915050565b5f81519050919050565b5f82825260208201905092915050565b8281835e5f83830152505050565b5f601f19601f8301169050919050565b5f614cde82614c9c565b614ce88185614ca6565b9350614cf8818560208601614cb6565b614d0181614cc4565b840191505092915050565b5f6020820190508181035f830152614d248184614cd4565b905092915050565b5f73ffffffffffffffffffffffffffffffffffffffff82169050919050565b5f614d5582614d2c565b9050919050565b614d6581614d4b565b82525050565b5f602082019050614d7e5f830184614d5c565b92915050565b614d8d81614d4b565b8114614d97575f5ffd5b50565b5f81359050614da881614d84565b92915050565b5f5ffd5b5f5ffd5b7f4e487b71000000000000000000000000000000000000000000000000000000005f52604160045260245ffd5b614dec82614cc4565b810181811067ffffffffffffffff82111715614e0b57614e0a614db6565b5b80604052505050565b5f614e1d614b52565b9050614e298282614de3565b919050565b5f67ffffffffffffffff821115614e4857614e47614db6565b5b614e5182614cc4565b9050602081019050919050565b828183375f83830152505050565b5f614e7e614e7984614e2e565b614e14565b905082815260208101848484011115614e9a57614e99614db2565b5b614ea5848285614e5e565b509392505050565b5f82601f830112614ec157614ec0614dae565b5b8135614ed1848260208601614e6c565b91505092915050565b5f5f5f5f60808587031215614ef257614ef1614b5b565b5b5f614eff87828801614d9a565b9450506020614f1087828801614d9a565b9350506040614f2187828801614c5d565b925050606085013567ffffffffffffffff811115614f4257614f41614b5f565b5b614f4e87828801614ead565b91505092959194509250565b614f6381614b63565b82525050565b5f602082019050614f7c5f830184614f5a565b92915050565b5f67ffffffffffffffff821115614f9c57614f9b614db6565b5b602082029050602081019050919050565b5f5ffd5b5f614fc3614fbe84614f82565b614e14565b90508083825260208201905060208402830185811115614fe657614fe5614fad565b5b835b8181101561500f5780614ffb8882614d9a565b845260208401935050602081019050614fe8565b5050509392505050565b5f82601f83011261502d5761502c614dae565b5b813561503d848260208601614fb1565b91505092915050565b5f67ffffffffffffffff8211156150605761505f614db6565b5b602082029050602081019050919050565b5f61508361507e84615046565b614e14565b905080838252602082019050602084028301858111156150a6576150a5614fad565b5b835b818110156150cf57806150bb8882614c5d565b8452602084019350506020810190506150a8565b5050509392505050565b5f82601f8301126150ed576150ec614dae565b5b81356150fd848260208601615071565b91505092915050565b5f67ffffffffffffffff8211156151205761511f614db6565b5b602082029050602081019050919050565b5f61514361513e84615106565b614e14565b9050808382526020820190506020840283018581111561516657615165614fad565b5b835b818110156151ad57803567ffffffffffffffff81111561518b5761518a614dae565b5b8086016151988982614ead565b85526020850194505050602081019050615168565b5050509392505050565b5f82601f8301126151cb576151ca614dae565b5b81356151db848260208601615131565b91505092915050565b5f819050919050565b6151f6816151e4565b8114615200575f5ffd5b50565b5f81359050615211816151ed565b92915050565b5f5f5f5f6080858703121561522f5761522e614b5b565b5b5f85013567ffffffffffffffff81111561524c5761524b614b5f565b5b61525887828801615019565b945050602085013567ffffffffffffffff81111561527957615278614b5f565b5b615285878288016150d9565b935050604085013567ffffffffffffffff8111156152a6576152a5614b5f565b5b6152b2878288016151b7565b92505060606152c387828801615203565b91505092959194509250565b6152d8816151e4565b82525050565b5f6020820190506152f15f8301846152cf565b92915050565b7f4e487b71000000000000000000000000000000000000000000000000000000005f52602160045260245ffd5b60088110615335576153346152f7565b5b50565b5f81905061534582615324565b919050565b5f61535482615338565b9050919050565b6153648161534a565b82525050565b5f60208201905061537d5f83018461535b565b92915050565b5f5f6040838503121561539957615398614b5b565b5b5f6153a685828601614c5d565b92505060206153b785828601614d9a565b9150509250929050565b5f6060820190506153d45f830186614c1f565b6153e16020830185614c1f565b6153ee6040830184614c1f565b949350505050565b5f60ff82169050919050565b61540b816153f6565b8114615415575f5ffd5b50565b5f8135905061542681615402565b92915050565b5f5f6040838503121561544257615441614b5b565b5b5f61544f85828601614c5d565b925050602061546085828601615418565b9150509250929050565b5f5ffd5b5f5f83601f84011261548357615482614dae565b5b8235905067ffffffffffffffff8111156154a05761549f61546a565b5b6020830191508360018202830111156154bc576154bb614fad565b5b9250929050565b5f5f5f5f5f5f5f60c0888a0312156154de576154dd614b5b565b5b5f6154eb8a828b01614c5d565b97505060206154fc8a828b01615418565b965050604061550d8a828b01614d9a565b955050606088013567ffffffffffffffff81111561552e5761552d614b5f565b5b61553a8a828b0161546e565b9450945050608088013567ffffffffffffffff81111561555d5761555c614b5f565b5b6155698a828b01614ead565b92505060a088013567ffffffffffffffff81111561558a57615589614b5f565b5b6155968a828b01614ead565b91505092959891949750929550565b5f5f5f5f5f608086880312156155be576155bd614b5b565b5b5f6155cb88828901614c5d565b95505060206155dc88828901615418565b945050604086013567ffffffffffffffff8111156155fd576155fc614b5f565b5b6156098882890161546e565b9350935050606086013567ffffffffffffffff81111561562c5761562b614b5f565b5b61563888828901614ead565b9150509295509295909350565b5f65ffffffffffff82169050919050565b61565f81615645565b8114615669575f5ffd5b50565b5f8135905061567a81615656565b92915050565b5f6020828403121561569557615694614b5b565b5b5f6156a28482850161566c565b91505092915050565b5f5f5f5f606085870312156156c3576156c2614b5b565b5b5f6156d087828801614c5d565b94505060206156e187828801615418565b935050604085013567ffffffffffffffff81111561570257615701614b5f565b5b61570e8782880161546e565b925092505092959194509250565b5f67ffffffffffffffff82111561573657615735614db6565b5b61573f82614cc4565b9050602081019050919050565b5f61575e6157598461571c565b614e14565b90508281526020810184848401111561577a57615779614db2565b5b615785848285614e5e565b509392505050565b5f82601f8301126157a1576157a0614dae565b5b81356157b184826020860161574c565b91505092915050565b5f5f5f5f608085870312156157d2576157d1614b5b565b5b5f85013567ffffffffffffffff8111156157ef576157ee614b5f565b5b6157fb87828801615019565b945050602085013567ffffffffffffffff81111561581c5761581b614b5f565b5b615828878288016150d9565b935050604085013567ffffffffffffffff81111561584957615848614b5f565b5b615855878288016151b7565b925050606085013567ffffffffffffffff81111561587657615875614b5f565b5b6158828782880161578d565b91505092959194509250565b5f602082840312156158a3576158a2614b5b565b5b5f6158b084828501614d9a565b91505092915050565b5f7fff0000000000000000000000000000000000000000000000000000000000000082169050919050565b6158ed816158b9565b82525050565b5f81519050919050565b5f82825260208201905092915050565b5f819050602082019050919050565b61592581614c16565b82525050565b5f615936838361591c565b60208301905092915050565b5f602082019050919050565b5f615958826158f3565b61596281856158fd565b935061596d8361590d565b805f5b8381101561599d578151615984888261592b565b975061598f83615942565b925050600181019050615970565b5085935050505092915050565b5f60e0820190506159bd5f83018a6158e4565b81810360208301526159cf8189614cd4565b905081810360408301526159e38188614cd4565b90506159f26060830187614c1f565b6159ff6080830186614d5c565b615a0c60a08301856152cf565b81810360c0830152615a1e818461594e565b905098975050505050505050565b5f5f5f5f60808587031215615a4457615a43614b5b565b5b5f615a5187828801614c5d565b9450506020615a6287828801615418565b9350506040615a7387828801614d9a565b925050606085013567ffffffffffffffff811115615a9457615a93614b5f565b5b615aa087828801614ead565b91505092959194509250565b615ab581615645565b82525050565b5f602082019050615ace5f830184615aac565b92915050565b5f5f5f60608486031215615aeb57615aea614b5b565b5b5f615af886828701614d9a565b9350506020615b0986828701614c5d565b925050604084013567ffffffffffffffff811115615b2a57615b29614b5f565b5b615b3686828701614ead565b9150509250925092565b5f615b4a82614d2c565b9050919050565b5f615b5b82615b40565b9050919050565b615b6b81615b51565b8114615b75575f5ffd5b50565b5f81359050615b8681615b62565b92915050565b5f60208284031215615ba157615ba0614b5b565b5b5f615bae84828501615b78565b91505092915050565b5f5f5f5f5f60a08688031215615bd057615bcf614b5b565b5b5f615bdd88828901614d9a565b9550506020615bee88828901614d9a565b945050604086013567ffffffffffffffff811115615c0f57615c0e614b5f565b5b615c1b888289016150d9565b935050606086013567ffffffffffffffff811115615c3c57615c3b614b5f565b5b615c48888289016150d9565b925050608086013567ffffffffffffffff811115615c6957615c68614b5f565b5b615c7588828901614ead565b9150509295509295909350565b5f5f83601f840112615c9757615c96614dae565b5b8235905067ffffffffffffffff811115615cb457615cb361546a565b5b602083019150836001820283011115615cd057615ccf614fad565b5b9250929050565b5f5f5f5f60608587031215615cef57615cee614b5b565b5b5f615cfc87828801614d9a565b9450506020615d0d87828801614c5d565b935050604085013567ffffffffffffffff811115615d2e57615d2d614b5f565b5b615d3a87828801615c82565b925092505092959194509250565b5f63ffffffff82169050919050565b615d6081615d48565b8114615d6a575f5ffd5b50565b5f81359050615d7b81615d57565b92915050565b5f60208284031215615d9657615d95614b5b565b5b5f615da384828501615d6d565b91505092915050565b5f5f60408385031215615dc257615dc1614b5b565b5b5f615dcf85828601614d9a565b9250506020615de085828601614c5d565b9150509250929050565b5f5f5f5f5f60a08688031215615e0357615e02614b5b565b5b5f615e1088828901614d9a565b9550506020615e2188828901614d9a565b9450506040615e3288828901614c5d565b9350506060615e4388828901614c5d565b925050608086013567ffffffffffffffff811115615e6457615e63614b5f565b5b615e7088828901614ead565b9150509295509295909350565b5f819050919050565b5f615ea0615e9b615e9684614d2c565b615e7d565b614d2c565b9050919050565b5f615eb182615e86565b9050919050565b5f615ec282615ea7565b9050919050565b615ed281615eb8565b82525050565b5f602082019050615eeb5f830184615ec9565b92915050565b7f4e487b71000000000000000000000000000000000000000000000000000000005f52602260045260245ffd5b5f6002820490506001821680615f3557607f821691505b602082108103615f4857615f47615ef1565b5b50919050565b5f615f68615f63615f5e84615645565b615e7d565b614c16565b9050919050565b615f7881615f4e565b82525050565b5f604082019050615f915f830185614c1f565b615f9e6020830184615f6f565b9392505050565b7f4e487b71000000000000000000000000000000000000000000000000000000005f52603260045260245ffd5b5f604082019050615fe55f830185614c1f565b615ff26020830184614d5c565b9392505050565b5f61600b6160068461571c565b614e14565b90508281526020810184848401111561602757616026614db2565b5b616032848285614cb6565b509392505050565b5f82601f83011261604e5761604d614dae565b5b815161605e848260208601615ff9565b91505092915050565b5f6020828403121561607c5761607b614b5b565b5b5f82015167ffffffffffffffff81111561609957616098614b5f565b5b6160a58482850161603a565b91505092915050565b7f4e487b71000000000000000000000000000000000000000000000000000000005f52601160045260245ffd5b5f6160e582615645565b91506160f083615645565b9250828203905065ffffffffffff81111561610e5761610d6160ae565b5b92915050565b5f6060820190506161275f830186614d5c565b6161346020830185614c1f565b6161416040830184614c1f565b949350505050565b5f8151905061615781615656565b92915050565b5f6020828403121561617257616171614b5b565b5b5f61617f84828501616149565b91505092915050565b5f61619282615645565b915061619d83615645565b9250828201905065ffffffffffff8111156161bb576161ba6160ae565b5b92915050565b5f81905092915050565b5f6161d683856161c1565b93506161e3838584614e5e565b82840190509392505050565b5f6161fb8284866161cb565b91508190509392505050565b5f81519050919050565b5f82825260208201905092915050565b5f819050602082019050919050565b61623981614d4b565b82525050565b5f61624a8383616230565b60208301905092915050565b5f602082019050919050565b5f61626c82616207565b6162768185616211565b935061628183616221565b805f5b838110156162b1578151616298888261623f565b97506162a383616256565b925050600181019050616284565b5085935050505092915050565b5f81519050919050565b5f82825260208201905092915050565b5f819050602082019050919050565b5f81519050919050565b5f82825260208201905092915050565b5f61630b826162e7565b61631581856162f1565b9350616325818560208601614cb6565b61632e81614cc4565b840191505092915050565b5f6163448383616301565b905092915050565b5f602082019050919050565b5f616362826162be565b61636c81856162c8565b93508360208202850161637e856162d8565b805f5b858110156163b9578484038952815161639a8582616339565b94506163a58361634c565b925060208a01995050600181019050616381565b50829750879550505050505092915050565b5f6080820190508181035f8301526163e38187616262565b905081810360208301526163f7818661594e565b9050818103604083015261640b8185616358565b905061641a60608301846152cf565b95945050505050565b5f8151905061643181614c47565b92915050565b5f6020828403121561644c5761644b614b5b565b5b5f61645984828501616423565b91505092915050565b5f6040820190506164755f830185614c1f565b6164826020830184614c1f565b9392505050565b5f60608201905061649c5f830186614c1f565b6164a9602083018561535b565b6164b660408301846152cf565b949350505050565b6164c781614be3565b81146164d1575f5ffd5b50565b5f815190506164e2816164be565b92915050565b5f602082840312156164fd576164fc614b5b565b5b5f61650a848285016164d4565b91505092915050565b61651c816153f6565b82525050565b5f60e0820190506165355f83018a6152cf565b6165426020830189614c1f565b61654f6040830188616513565b61655c6060830187614d5c565b6165696080830186614c1f565b61657660a08301856152cf565b61658360c08301846152cf565b98975050505050505050565b5f6080820190506165a25f830187614c1f565b6165af6020830186616513565b6165bc6040830185614c1f565b81810360608301526165ce8184614cd4565b905095945050505050565b5f82825260208201905092915050565b5f6165f3826162e7565b6165fd81856165d9565b935061660d818560208601614cb6565b61661681614cc4565b840191505092915050565b5f60a0820190506166345f830188614c1f565b6166416020830187616513565b61664e6040830186614c1f565b81810360608301526166608185614cd4565b9050818103608083015261667481846165e9565b90509695505050505050565b5f6040820190506166935f830185615f6f565b6166a06020830184615f6f565b9392505050565b5f6166b182614c16565b91506166bc83614c16565b92508282019050808211156166d4576166d36160ae565b5b92915050565b5f81519050919050565b5f82825260208201905092915050565b5f819050602082019050919050565b5f82825260208201905092915050565b5f61671d82614c9c565b6167278185616703565b9350616737818560208601614cb6565b61674081614cc4565b840191505092915050565b5f6167568383616713565b905092915050565b5f602082019050919050565b5f616774826166da565b61677e81856166e4565b935083602082028501616790856166f4565b805f5b858110156167cb57848403895281516167ac858261674b565b94506167b78361675e565b925060208a01995050600181019050616793565b50829750879550505050505092915050565b5f610120820190506167f15f83018c614c1f565b6167fe602083018b614d5c565b8181036040830152616810818a616262565b90508181036060830152616824818961594e565b90508181036080830152616838818861676a565b905081810360a083015261684c8187616358565b905061685b60c0830186614c1f565b61686860e0830185614c1f565b81810361010083015261687b8184614cd4565b90509a9950505050505050505050565b5f60a08201905061689e5f8301886152cf565b6168ab6020830187614c1f565b6168b86040830186616513565b6168c56060830185614d5c565b6168d26080830184614c1f565b9695505050505050565b5f6040820190506168ef5f830185614d5c565b6168fc6020830184614c1f565b9392505050565b5f61690d82614c16565b915061691883614c16565b92508282039050818111156169305761692f6160ae565b5b92915050565b5f6040820190506169495f830185614d5c565b6169566020830184614d5c565b9392505050565b5f819050919050565b5f61698061697b6169768461695d565b615e7d565b614c16565b9050919050565b61699081616966565b82525050565b5f6020820190506169a95f830184616987565b92915050565b5f6169c96169c46169bf84615d48565b615e7d565b614c16565b9050919050565b6169d9816169af565b82525050565b5f6040820190506169f25f8301856169d0565b6169ff60208301846169d0565b9392505050565b7f4e487b71000000000000000000000000000000000000000000000000000000005f52601260045260245ffd5b5f819050919050565b5f616a56616a51616a4c84616a33565b615e7d565b6153f6565b9050919050565b616a6681616a3c565b82525050565b5f604082019050616a7f5f830185616a5d565b616a8c6020830184614c1f565b9392505050565b5f815f1b9050919050565b5f616ab8616ab3616aae8461695d565b616a93565b6151e4565b9050919050565b616ac881616a9e565b82525050565b5f60a0820190508181035f830152616ae68188616262565b90508181036020830152616afa818761594e565b90508181036040830152616b0e8186616358565b9050616b1d6060830185616abf565b616b2a60808301846152cf565b9695505050505050565b5f81519050616b42816151ed565b92915050565b5f60208284031215616b5d57616b5c614b5b565b5b5f616b6a84828501616b34565b91505092915050565b5f60c0820190508181035f830152616b8b8189616262565b90508181036020830152616b9f818861594e565b90508181036040830152616bb38187616358565b9050616bc26060830186616abf565b616bcf60808301856152cf565b616bdc60a0830184614c1f565b979650505050505050565b5f819050919050565b5f616c0a616c05616c0084616be7565b615e7d565b6153f6565b9050919050565b616c1a81616bf0565b82525050565b5f604082019050616c335f830185616c11565b616c406020830184614c1f565b9392505050565b5f616c5182614c16565b9150616c5c83614c16565b9250828202616c6a81614c16565b91508282048414831517616c8157616c806160ae565b5b5092915050565b5f819050919050565b5f616cab616ca6616ca184616c88565b615e7d565b6153f6565b9050919050565b616cbb81616c91565b82525050565b5f604082019050616cd45f830185616cb2565b616ce16020830184614c1f565b9392505050565b5f616cf2826153f6565b9150616cfd836153f6565b9250828201905060ff811115616d1657616d156160ae565b5b92915050565b5f8160011c9050919050565b5f5f8291508390505b6001851115616d7157808604811115616d4d57616d4c6160ae565b5b6001851615616d5c5780820291505b8081029050616d6a85616d1c565b9450616d31565b94509492505050565b5f82616d895760019050616e44565b81616d96575f9050616e44565b8160018114616dac5760028114616db657616de5565b6001915050616e44565b60ff841115616dc857616dc76160ae565b5b8360020a915084821115616ddf57616dde6160ae565b5b50616e44565b5060208310610133831016604e8410600b8410161715616e1a5782820a905083811115616e1557616e146160ae565b5b616e44565b616e278484846001616d28565b92509050818404811115616e3e57616e3d6160ae565b5b81810290505b9392505050565b5f616e5582614c16565b9150616e60836153f6565b9250616e8d7fffffffffffffffffffffffffffffffffffffffffffffffffffffffffffffffff8484616d7a565b905092915050565b5f60a082019050616ea85f8301886152cf565b616eb560208301876152cf565b616ec260408301866152cf565b616ecf6060830185614c1f565b616edc6080830184614d5c565b9695505050505050565b5f608082019050616ef95f8301876152cf565b616f066020830186616513565b616f1360408301856152cf565b616f2060608301846152cf565b9594505050505056fea2646970667358221220a93148930e86854e9182fc7fc0a6b2a2bb1f04f99bff03a169ae02ec630ac29764736f6c63430008210033","linkReferences":{}},"methodIdentifiers":{"BALLOT_TYPEHASH()":"deaaa7cc","CLOCK_MODE()":"4bf5d7e9","COUNTING_MODE()":"dd4e2ba5","EXTENDED_BALLOT_TYPEHASH()":"2fe3e261","cancel(address[],uint256[],bytes[],bytes32)":"452115d6","castVote(uint256,uint8)":"56781388","castVoteBySig(uint256,uint8,address,bytes)":"8ff262e3","castVoteWithReason(uint256,uint8,string)":"7b3c71d3","castVoteWithReasonAndParams(uint256,uint8,string,bytes)":"5f398a14","castVoteWithReasonAndParamsBySig(uint256,uint8,address,string,bytes,bytes)":"5b8d0e0d","clock()":"91ddadf4","eip712Domain()":"84b0196e","execute(address[],uint256[],bytes[],bytes32)":"2656227d","getProposalId(address[],uint256[],bytes[],bytes32)":"a8f8a668","getVotes(address,uint256)":"eb9019d4","getVotesWithParams(address,uint256,bytes)":"9a802a6d","hasVoted(uint256,address)":"43859632","hashProposal(address[],uint256[],bytes[],bytes32)":"c59057e4","name()":"06fdde03","nonces(address)":"7ecebe00","onERC1155BatchReceived(address,address,uint256[],uint256[],bytes)":"bc197c81","onERC1155Received(address,address,uint256,uint256,bytes)":"f23a6e61","onERC721Received(address,address,uint256,bytes)":"150b7a02","proposalDeadline(uint256)":"c01f9e37","proposalEta(uint256)":"ab58fb8e","proposalNeedsQueuing(uint256)":"a9a95294","proposalProposer(uint256)":"143489d0","proposalSnapshot(uint256)":"2d63f693","proposalThreshold()":"b58131b0","proposalVotes(uint256)":"544ffc9c","propose(address[],uint256[],bytes[],string)":"7d5e81e2","queue(address[],uint256[],bytes[],bytes32)":"160cbed7","quorum(uint256)":"f8ce560a","quorumDenominator()":"97c3d334","quorumNumerator()":"a7713a70","quorumNumerator(uint256)":"60c4247f","relay(address,uint256,bytes)":"c28bc2fa","setProposalThreshold(uint256)":"ece40cc1","setVotingDelay(uint48)":"79051887","setVotingPeriod(uint32)":"e540d01d","state(uint256)":"3e4f49e6","supportsInterface(bytes4)":"01ffc9a7","timelock()":"d33219b4","token()":"fc0c546a","updateQuorumNumerator(uint256)":"06f3f9e6","updateTimelock(address)":"a890c910","version()":"54fd4d50","votingDelay()":"3932abb1","votingPeriod()":"02a251a3"},"id":72}