{"abi":[{"type":"constructor","inputs":[],"stateMutability":"nonpayable"},{"type":"function","name":"CLOCK_MODE","inputs":[],"outputs":[{"name":"","type":"string","internalType":"string"}],"stateMutability":"view"},{"type":"function","name":"DOMAIN_SEPARATOR","inputs":[],"outputs":[{"name":"","type":"bytes32","internalType":"bytes32"}],"stateMutability":"view"},{"type":"function","name":"allowance","inputs":[{"name":"owner","type":"address","internalType":"address"},{"name":"spender","type":"address","internalType":"address"}],"outputs":[{"name":"","type":"uint256","internalType":"uint256"}],"stateMutability":"view"},{"type":"function","name":"approve","inputs":[{"name":"spender","type":"address","internalType":"address"},{"name":"value","type":"uint256","internalType":"uint256"}],"outputs":[{"name":"","type":"bool","internalType":"bool"}],"stateMutability":"nonpayable"},{"type":"function","name":"balanceOf","inputs":[{"name":"account","type":"address","internalType":"address"}],"outputs":[{"name":"","type":"uint256","internalType":"uint256"}],"stateMutability":"view"},{"type":"function","name":"checkpoints","inputs":[{"name":"account","type":"address","internalType":"address"},{"name":"pos","type":"uint32","internalType":"uint32"}],"outputs":[{"name":"","type":"tuple","internalType":"struct Checkpoints.Checkpoint208","components":[{"name":"_key","type":"uint48","internalType":"uint48"},{"name":"_value","type":"uint208","internalType":"uint208"}]}],"stateMutability":"view"},{"type":"function","name":"clock","inputs":[],"outputs":[{"name":"","type":"uint48","internalType":"uint48"}],"stateMutability":"view"},{"type":"function","name":"decimals","inputs":[],"outputs":[{"name":"","type":"uint8","internalType":"uint8"}],"stateMutability":"view"},{"type":"function","name":"delegate","inputs":[{"name":"delegatee","type":"address","internalType":"address"}],"outputs":[],"stateMutability":"nonpayable"},{"type":"function","name":"delegateBySig","inputs":[{"name":"delegatee","type":"address","internalType":"address"},{"name":"nonce","type":"uint256","internalType":"uint256"},{"name":"expiry","type":"uint256","internalType":"uint256"},{"name":"v","type":"uint8","internalType":"uint8"},{"name":"r","type":"bytes32","internalType":"bytes32"},{"name":"s","type":"bytes32","internalType":"bytes32"}],"outputs":[],"stateMutability":"nonpayable"},{"type":"function","name":"delegates","inputs":[{"name":"account","type":"address","internalType":"address"}],"outputs":[{"name":"","type":"address","internalType":"address"}],"stateMutability":"view"},{"type":"function","name":"eip712Domain","inputs":[],"outputs":[{"name":"fields","type":"bytes1","internalType":"bytes1"},{"name":"name","type":"string","internalType":"string"},{"name":"version","type":"string","internalType":"string"},{"name":"chainId","type":"uint256","internalType":"uint256"},{"name":"verifyingContract","type":"address","internalType":"address"},{"name":"salt","type":"bytes32","internalType":"bytes32"},{"name":"extensions","type":"uint256[]","internalType":"uint256[]"}],"stateMutability":"view"},{"type":"function","name":"getPastTotalSupply","inputs":[{"name":"timepoint","type":"uint256","internalType":"uint256"}],"outputs":[{"name":"","type":"uint256","internalType":"uint256"}],"stateMutability":"view"},{"type":"function","name":"getPastVotes","inputs":[{"name":"account","type":"address","internalType":"address"},{"name":"timepoint","type":"uint256","internalType":"uint256"}],"outputs":[{"name":"","type":"uint256","internalType":"uint256"}],"stateMutability":"view"},{"type":"function","name":"getVotes","inputs":[{"name":"account","type":"address","internalType":"address"}],"outputs":[{"name":"","type":"uint256","internalType":"uint256"}],"stateMutability":"view"},{"type":"function","name":"name","inputs":[],"outputs":[{"name":"","type":"string","internalType":"string"}],"stateMutability":"view"},{"type":"function","name":"nonces","inputs":[{"name":"owner","type":"address","internalType":"address"}],"outputs":[{"name":"","type":"uint256","internalType":"uint256"}],"stateMutability":"view"},{"type":"function","name":"numCheckpoints","inputs":[{"name":"account","type":"address","internalType":"address"}],"outputs":[{"name":"","type":"uint32","internalType":"uint32"}],"stateMutability":"view"},{"type":"function","name":"permit","inputs":[{"name":"owner","type":"address","internalType":"address"},{"name":"spender","type":"address","internalType":"address"},{"name":"value","type":"uint256","internalType":"uint256"},{"name":"deadline","type":"uint256","internalType":"uint256"},{"name":"v","type":"uint8","internalType":"uint8"},{"name":"r","type":"bytes32","internalType":"bytes32"},{"name":"s","type":"bytes32","internalType":"bytes32"}],"outputs":[],"stateMutability":"nonpayable"},{"type":"function","name":"symbol","inputs":[],"outputs":[{"name":"","type":"string","internalType":"string"}],"stateMutability":"view"},{"type":"function","name":"totalSupply","inputs":[],"outputs":[{"name":"","type":"uint256","internalType":"uint256"}],"stateMutability":"view"},{"type":"function","name":"transfer","inputs":[{"name":"to","type":"address","internalType":"address"},{"name":"value","type":"uint256","internalType":"uint256"}],"outputs":[{"name":"","type":"bool","internalType":"bool"}],"stateMutability":"nonpayable"},{"type":"function","name":"transferFrom","inputs":[{"name":"from","type":"address","internalType":"address"},{"name":"to","type":"address","internalType":"address"},{"name":"value","type":"uint256","internalType":"uint256"}],"outputs":[{"name":"","type":"bool","internalType":"bool"}],"stateMutability":"nonpayable"},{"type":"event","name":"Approval","inputs":[{"name":"owner","type":"address","indexed":true,"internalType":"address"},{"name":"spender","type":"address","indexed":true,"internalType":"address"},{"name":"value","type":"uint256","indexed":false,"internalType":"uint256"}],"anonymous":false},{"type":"event","name":"DelegateChanged","inputs":[{"name":"delegator","type":"address","indexed":true,"internalType":"address"},{"name":"fromDelegate","type":"address","indexed":true,"internalType":"address"},{"name":"toDelegate","type":"address","indexed":true,"internalType":"address"}],"anonymous":false},{"type":"event","name":"DelegateVotesChanged","inputs":[{"name":"delegate","type":"address","indexed":true,"internalType":"address"},{"name":"previousVotes","type":"uint256","indexed":false,"internalType":"uint256"},{"name":"newVotes","type":"uint256","indexed":false,"internalType":"uint256"}],"anonymous":false},{"type":"event","name":"EIP712DomainChanged","inputs":[],"anonymous":false},{"type":"event","name":"Transfer","inputs":[{"name":"from","type":"address","indexed":true,"internalType":"address"},{"name":"to","type":"address","indexed":true,"internalType":"address"},{"name":"value","type":"uint256","indexed":false,"internalType":"uint256"}],"anonymous":false},{"type":"error","name":"CheckpointUnorderedInsertion","inputs":[]},{"type":"error","name":"ECDSAInvalidSignature","inputs":[]},{"type":"error","name":"ECDSAInvalidSignatureLength","inputs":[{"name":"length","type":"uint256","internalType":"uint256"}]},{"type":"error","name":"ECDSAInvalidSignatureS","inputs":[{"name":"s","type":"bytes32","internalType":"bytes32"}]},{"type":"error","name":"ERC20ExceededSafeSupply","inputs":[{"name":"increasedSupply","type":"uint256","internalType":"uint256"},{"name":"cap","type":"uint256","internalType":"uint256"}]},{"type":"error","name":"ERC20InsufficientAllowance","inputs":[{"name":"spender","type":"address","internalType":"address"},{"name":"allowance","type":"uint256","internalType":"uint256"},{"name":"needed","type":"uint256","internalType":"uint256"}]},{"type":"error","name":"ERC20InsufficientBalance","inputs":[{"name":"sender","type":"address","internalType":"address"},{"name":"balance","type":"uint256","internalType":"uint256"},{"name":"needed","type":"uint256","internalType":"uint256"}]},{"type":"error","name":"ERC20InvalidApprover","inputs":[{"name":"approver","type":"address","internalType":"address"}]},{"type":"error","name":"ERC20InvalidReceiver","inputs":[{"name":"receiver","type":"address","internalType":"address"}]},{"type":"error","name":"ERC20InvalidSender","inputs":[{"name":"sender","type":"address","internalType":"address"}]},{"type":"error","name":"ERC20InvalidSpender","inputs":[{"name":"spender","type":"address","internalType":"address"}]},{"type":"error","name":"ERC2612ExpiredSignature","inputs":[{"name":"deadline","type":"uint256","internalType":"uint256"}]},{"type":"error","name":"ERC2612InvalidSigner","inputs":[{"name":"signer","type":"address","internalType":"address"},{"name":"owner","type":"address","internalType":"address"}]},{"type":"error","name":"ERC5805FutureLookup","inputs":[{"name":"timepoint","type":"uint256","internalType":"uint256"},{"name":"clock","type":"uint48","internalType":"uint48"}]},{"type":"error","name":"ERC6372InconsistentClock","inputs":[]},{"type":"error","name":"InvalidAccountNonce","inputs":[{"name":"account","type":"address","internalType":"address"},{"name":"currentNonce","type":"uint256","internalType":"uint256"}]},{"type":"error","name":"InvalidShortString","inputs":[]},{"type":"error","name":"SafeCastOverflowedUintDowncast","inputs":[{"name":"bits","type":"uint8","internalType":"uint8"},{"name":"value","type":"uint256","internalType":"uint256"}]},{"type":"error","name":"StringTooLong","inputs":[{"name":"str","type":"string","internalType":"string"}]},{"type":"error","name":"VotesExpiredSignature","inputs":[{"name":"expiry","type":"uint256","internalType":"uint256"}]}],"bytecode":{"object":"0x610160604052348015610010575f5ffd5b506040518060400160405280600f81526020017f476f7665726e616e6365546f6b656e0000000000000000000000000000000000815250806040518060400160405280600181526020017f31000000000000000000000000000000000000000000000000000000000000008152506040518060400160405280600f81526020017f476f7665726e616e6365546f6b656e00000000000000000000000000000000008152506040518060400160405280600381526020017f474f56000000000000000000000000000000000000000000000000000000000081525081600390816100f991906111e5565b50806004908161010991906111e5565b5050506101206005836101f360201b90919060201c565b610120818152505061013c6006826101f360201b90919060201c565b6101408181525050818051906020012060e08181525050808051906020012061010081815250504660a0818152505061017961024060201b60201c565b608081815250503073ffffffffffffffffffffffffffffffffffffffff1660c08173ffffffffffffffffffffffffffffffffffffffff16815250505050506101ee336101c961029a60201b60201c565b600a6101d5919061141c565b620f42406101e39190611466565b6102a260201b60201c565b6118ea565b5f6020835110156102145761020d8361032760201b60201c565b905061023a565b826102248361038c60201b60201c565b5f01908161023291906111e5565b5060ff5f1b90505b92915050565b5f7f8b73c3c69bb8fe3d512ecc4cf759cc79239f7b179b0ffacaa9a75d522b39400f60e05161010051463060405160200161027f95949392919061150d565b60405160208183030381529060405280519060200120905090565b5f6012905090565b5f73ffffffffffffffffffffffffffffffffffffffff168273ffffffffffffffffffffffffffffffffffffffff1603610312575f6040517fec442f05000000000000000000000000000000000000000000000000000000008152600401610309919061155e565b60405180910390fd5b6103235f838361039560201b60201c565b5050565b5f5f829050601f8151111561037357826040517f305a27a900000000000000000000000000000000000000000000000000000000815260040161036a91906115dd565b60405180910390fd5b80518161037f9061162a565b5f1c175f1b915050919050565b5f819050919050565b6103a68383836103ab60201b60201c565b505050565b6103bc83838361047160201b60201c565b5f73ffffffffffffffffffffffffffffffffffffffff168373ffffffffffffffffffffffffffffffffffffffff160361045b575f6103fe61068a60201b60201c565b90505f61040f61069360201b60201c565b9050808211156104585781816040517f1cb15d2600000000000000000000000000000000000000000000000000000000815260040161044f929190611690565b60405180910390fd5b50505b61046c8383836106b660201b60201c565b505050565b5f73ffffffffffffffffffffffffffffffffffffffff168373ffffffffffffffffffffffffffffffffffffffff16036104c1578060025f8282546104b591906116b7565b9250508190555061058f565b5f5f5f8573ffffffffffffffffffffffffffffffffffffffff1673ffffffffffffffffffffffffffffffffffffffff1681526020019081526020015f205490508181101561054a578381836040517fe450d38c000000000000000000000000000000000000000000000000000000008152600401610541939291906116ea565b60405180910390fd5b8181035f5f8673ffffffffffffffffffffffffffffffffffffffff1673ffffffffffffffffffffffffffffffffffffffff1681526020019081526020015f2081905550505b5f73ffffffffffffffffffffffffffffffffffffffff168273ffffffffffffffffffffffffffffffffffffffff16036105d6578060025f8282540392505081905550610620565b805f5f8473ffffffffffffffffffffffffffffffffffffffff1673ffffffffffffffffffffffffffffffffffffffff1681526020019081526020015f205f82825401925050819055505b8173ffffffffffffffffffffffffffffffffffffffff168373ffffffffffffffffffffffffffffffffffffffff167fddf252ad1be2c89b69c2b068fc378daa952ba7f163c4a11628f55a4df523b3ef8360405161067d919061171f565b60405180910390a3505050565b5f600254905090565b5f79ffffffffffffffffffffffffffffffffffffffffffffffffffff8016905090565b5f73ffffffffffffffffffffffffffffffffffffffff168373ffffffffffffffffffffffffffffffffffffffff160361071557610712600a6107a660201b610c8117610707846107bb60201b60201c565b61082860201b60201c565b50505b5f73ffffffffffffffffffffffffffffffffffffffff168273ffffffffffffffffffffffffffffffffffffffff160361077457610771600a61087060201b610c9617610766846107bb60201b60201c565b61082860201b60201c565b50505b6107a16107868461088560201b60201c565b6107958461088560201b60201c565b836108ea60201b60201c565b505050565b5f81836107b3919061175d565b905092915050565b5f79ffffffffffffffffffffffffffffffffffffffffffffffffffff80168211156108205760d0826040517f6dfcc6500000000000000000000000000000000000000000000000000000000081526004016108179291906117e3565b60405180910390fd5b819050919050565b5f5f61086461083b610b8060201b60201c565b61085461084d88610b9460201b60201c565b868860201c565b87610bfc60201b9092919060201c565b91509150935093915050565b5f818361087d919061180a565b905092915050565b5f60085f8373ffffffffffffffffffffffffffffffffffffffff1673ffffffffffffffffffffffffffffffffffffffff1681526020019081526020015f205f9054906101000a900473ffffffffffffffffffffffffffffffffffffffff169050919050565b8173ffffffffffffffffffffffffffffffffffffffff168373ffffffffffffffffffffffffffffffffffffffff161415801561092557505f81115b15610b7b575f73ffffffffffffffffffffffffffffffffffffffff168373ffffffffffffffffffffffffffffffffffffffff1614610a52575f5f6109c360095f8773ffffffffffffffffffffffffffffffffffffffff1673ffffffffffffffffffffffffffffffffffffffff1681526020019081526020015f2061087060201b610c96176109b8866107bb60201b60201c565b61082860201b60201c565b79ffffffffffffffffffffffffffffffffffffffffffffffffffff16915079ffffffffffffffffffffffffffffffffffffffffffffffffffff1691508473ffffffffffffffffffffffffffffffffffffffff167fdec2bacdd2f05b59de34da9b523dff8be42e5e38e818c82fdb0bae774387a7248383604051610a47929190611690565b60405180910390a250505b5f73ffffffffffffffffffffffffffffffffffffffff168273ffffffffffffffffffffffffffffffffffffffff1614610b7a575f5f610aeb60095f8673ffffffffffffffffffffffffffffffffffffffff1673ffffffffffffffffffffffffffffffffffffffff1681526020019081526020015f206107a660201b610c8117610ae0866107bb60201b60201c565b61082860201b60201c565b79ffffffffffffffffffffffffffffffffffffffffffffffffffff16915079ffffffffffffffffffffffffffffffffffffffffffffffffffff1691508373ffffffffffffffffffffffffffffffffffffffff167fdec2bacdd2f05b59de34da9b523dff8be42e5e38e818c82fdb0bae774387a7248383604051610b6f929190611690565b60405180910390a250505b5b505050565b5f610b8f610c1d60201b60201c565b905090565b5f5f825f018054905090505f8114610bf257610bc4835f01600183610bb99190611857565b610c3260201b60201c565b5f0160069054906101000a900479ffffffffffffffffffffffffffffffffffffffffffffffffffff16610bf4565b5f5b915050919050565b5f5f610c11855f018585610c4460201b60201c565b91509150935093915050565b5f610c2d43610f3e60201b60201c565b905090565b5f825f528160205f2001905092915050565b5f5f5f858054905090505f811115610e56575f610c7387600184610c689190611857565b610c3260201b60201c565b90505f815f015f9054906101000a900465ffffffffffff1690505f825f0160069054906101000a900479ffffffffffffffffffffffffffffffffffffffffffffffffffff1690508765ffffffffffff168265ffffffffffff161115610d04576040517f2520601d00000000000000000000000000000000000000000000000000000000815260040160405180910390fd5b8765ffffffffffff168265ffffffffffff1603610d6e5786835f0160066101000a81548179ffffffffffffffffffffffffffffffffffffffffffffffffffff021916908379ffffffffffffffffffffffffffffffffffffffffffffffffffff160217905550610e47565b8860405180604001604052808a65ffffffffffff1681526020018979ffffffffffffffffffffffffffffffffffffffffffffffffffff16815250908060018154018082558091505060019003905f5260205f20015f909190919091505f820151815f015f6101000a81548165ffffffffffff021916908365ffffffffffff1602179055506020820151815f0160066101000a81548179ffffffffffffffffffffffffffffffffffffffffffffffffffff021916908379ffffffffffffffffffffffffffffffffffffffffffffffffffff16021790555050505b80879550955050505050610f36565b8560405180604001604052808765ffffffffffff1681526020018679ffffffffffffffffffffffffffffffffffffffffffffffffffff16815250908060018154018082558091505060019003905f5260205f20015f909190919091505f820151815f015f6101000a81548165ffffffffffff021916908365ffffffffffff1602179055506020820151815f0160066101000a81548179ffffffffffffffffffffffffffffffffffffffffffffffffffff021916908379ffffffffffffffffffffffffffffffffffffffffffffffffffff16021790555050505f8492509250505b935093915050565b5f65ffffffffffff8016821115610f8f576030826040517f6dfcc650000000000000000000000000000000000000000000000000000000008152600401610f869291906118c3565b60405180910390fd5b819050919050565b5f81519050919050565b7f4e487b71000000000000000000000000000000000000000000000000000000005f52604160045260245ffd5b7f4e487b71000000000000000000000000000000000000000000000000000000005f52602260045260245ffd5b5f600282049050600182168061101257607f821691505b60208210810361102557611024610fce565b5b50919050565b5f819050815f5260205f209050919050565b5f6020601f8301049050919050565b5f82821b905092915050565b5f600883026110877fffffffffffffffffffffffffffffffffffffffffffffffffffffffffffffffff8261104c565b611091868361104c565b95508019841693508086168417925050509392505050565b5f819050919050565b5f819050919050565b5f6110d56110d06110cb846110a9565b6110b2565b6110a9565b9050919050565b5f819050919050565b6110ee836110bb565b6111026110fa826110dc565b848454611058565b825550505050565b5f5f905090565b61111961110a565b6111248184846110e5565b505050565b5f5b8281101561114a5761113f5f828401611111565b60018101905061112b565b505050565b601f82111561119d578282111561119c576111698161102b565b6111728361103d565b61117b8561103d565b6020861015611188575f90505b80830161119782840382611129565b505050505b5b505050565b5f82821c905092915050565b5f6111bd5f19846008026111a2565b1980831691505092915050565b5f6111d583836111ae565b9150826002028217905092915050565b6111ee82610f97565b67ffffffffffffffff81111561120757611206610fa1565b5b6112118254610ffb565b61121c82828561114f565b5f60209050601f83116001811461124d575f841561123b578287015190505b61124585826111ca565b8655506112ac565b601f19841661125b8661102b565b5f5b828110156112825784890151825560018201915060208501945060208101905061125d565b8683101561129f578489015161129b601f8916826111ae565b8355505b6001600288020188555050505b505050505050565b7f4e487b71000000000000000000000000000000000000000000000000000000005f52601160045260245ffd5b5f8160011c9050919050565b5f5f8291508390505b600185111561133657808604811115611312576113116112b4565b5b60018516156113215780820291505b808102905061132f856112e1565b94506112f6565b94509492505050565b5f8261134e5760019050611409565b8161135b575f9050611409565b8160018114611371576002811461137b576113aa565b6001915050611409565b60ff84111561138d5761138c6112b4565b5b8360020a9150848211156113a4576113a36112b4565b5b50611409565b5060208310610133831016604e8410600b84101617156113df5782820a9050838111156113da576113d96112b4565b5b611409565b6113ec84848460016112ed565b92509050818404811115611403576114026112b4565b5b81810290505b9392505050565b5f60ff82169050919050565b5f611426826110a9565b915061143183611410565b925061145e7fffffffffffffffffffffffffffffffffffffffffffffffffffffffffffffffff848461133f565b905092915050565b5f611470826110a9565b915061147b836110a9565b9250828202611489816110a9565b915082820484148315176114a05761149f6112b4565b5b5092915050565b5f819050919050565b6114b9816114a7565b82525050565b6114c8816110a9565b82525050565b5f73ffffffffffffffffffffffffffffffffffffffff82169050919050565b5f6114f7826114ce565b9050919050565b611507816114ed565b82525050565b5f60a0820190506115205f8301886114b0565b61152d60208301876114b0565b61153a60408301866114b0565b61154760608301856114bf565b61155460808301846114fe565b9695505050505050565b5f6020820190506115715f8301846114fe565b92915050565b5f82825260208201905092915050565b8281835e5f83830152505050565b5f601f19601f8301169050919050565b5f6115af82610f97565b6115b98185611577565b93506115c9818560208601611587565b6115d281611595565b840191505092915050565b5f6020820190508181035f8301526115f581846115a5565b905092915050565b5f81519050919050565b5f819050602082019050919050565b5f61162182516114a7565b80915050919050565b5f611634826115fd565b8261163e84611607565b905061164981611616565b92506020821015611689576116847fffffffffffffffffffffffffffffffffffffffffffffffffffffffffffffffff8360200360080261104c565b831692505b5050919050565b5f6040820190506116a35f8301856114bf565b6116b060208301846114bf565b9392505050565b5f6116c1826110a9565b91506116cc836110a9565b92508282019050808211156116e4576116e36112b4565b5b92915050565b5f6060820190506116fd5f8301866114fe565b61170a60208301856114bf565b61171760408301846114bf565b949350505050565b5f6020820190506117325f8301846114bf565b92915050565b5f79ffffffffffffffffffffffffffffffffffffffffffffffffffff82169050919050565b5f61176782611738565b915061177283611738565b9250828201905079ffffffffffffffffffffffffffffffffffffffffffffffffffff8111156117a4576117a36112b4565b5b92915050565b5f819050919050565b5f6117cd6117c86117c3846117aa565b6110b2565b611410565b9050919050565b6117dd816117b3565b82525050565b5f6040820190506117f65f8301856117d4565b61180360208301846114bf565b9392505050565b5f61181482611738565b915061181f83611738565b9250828203905079ffffffffffffffffffffffffffffffffffffffffffffffffffff811115611851576118506112b4565b5b92915050565b5f611861826110a9565b915061186c836110a9565b9250828203905081811115611884576118836112b4565b5b92915050565b5f819050919050565b5f6118ad6118a86118a38461188a565b6110b2565b611410565b9050919050565b6118bd81611893565b82525050565b5f6040820190506118d65f8301856118b4565b6118e360208301846114bf565b9392505050565b60805160a05160c05160e0516101005161012051610140516135c761193b5f395f61122101525f6111e601525f61162901525f61160801525f610e4a01525f610ea001525f610ec901526135c75ff3fe608060405234801561000f575f5ffd5b506004361061014b575f3560e01c806370a08231116100c15780639ab24eb01161007a5780639ab24eb0146103e1578063a9059cbb14610411578063c3cda52014610441578063d505accf1461045d578063dd62ed3e14610479578063f1127ed8146104a95761014b565b806370a08231146102f15780637ecebe001461032157806384b0196e146103515780638e539e8c1461037557806391ddadf4146103a557806395d89b41146103c35761014b565b80633644e515116101135780633644e515146102095780633a46b1a8146102275780634bf5d7e914610257578063587cde1e146102755780635c19a95c146102a55780636fcfff45146102c15761014b565b806306fdde031461014f578063095ea7b31461016d57806318160ddd1461019d57806323b872dd146101bb578063313ce567146101eb575b5f5ffd5b6101576104d9565b604051610164919061291a565b60405180910390f35b610187600480360381019061018291906129cb565b610569565b6040516101949190612a23565b60405180910390f35b6101a561058b565b6040516101b29190612a4b565b60405180910390f35b6101d560048036038101906101d09190612a64565b610594565b6040516101e29190612a23565b60405180910390f35b6101f36105c2565b6040516102009190612acf565b60405180910390f35b6102116105ca565b60405161021e9190612b00565b60405180910390f35b610241600480360381019061023c91906129cb565b6105d8565b60405161024e9190612a4b565b60405180910390f35b61025f610654565b60405161026c919061291a565b60405180910390f35b61028f600480360381019061028a9190612b19565b6106e8565b60405161029c9190612b53565b60405180910390f35b6102bf60048036038101906102ba9190612b19565b61074d565b005b6102db60048036038101906102d69190612b19565b610766565b6040516102e89190612b8a565b60405180910390f35b61030b60048036038101906103069190612b19565b610777565b6040516103189190612a4b565b60405180910390f35b61033b60048036038101906103369190612b19565b6107bc565b6040516103489190612a4b565b60405180910390f35b6103596107cd565b60405161036c9796959493929190612c94565b60405180910390f35b61038f600480360381019061038a9190612d16565b610872565b60405161039c9190612a4b565b60405180910390f35b6103ad6108b2565b6040516103ba9190612d61565b60405180910390f35b6103cb6108c0565b6040516103d8919061291a565b60405180910390f35b6103fb60048036038101906103f69190612b19565b610950565b6040516104089190612a4b565b60405180910390f35b61042b600480360381019061042691906129cb565b6109b9565b6040516104389190612a23565b60405180910390f35b61045b60048036038101906104569190612dce565b6109db565b005b61047760048036038101906104729190612e57565b610aa0565b005b610493600480360381019061048e9190612ef4565b610be5565b6040516104a09190612a4b565b60405180910390f35b6104c360048036038101906104be9190612f5c565b610c67565b6040516104d0919061300a565b60405180910390f35b6060600380546104e890613050565b80601f016020809104026020016040519081016040528092919081815260200182805461051490613050565b801561055f5780601f106105365761010080835404028352916020019161055f565b820191905f5260205f20905b81548152906001019060200180831161054257829003601f168201915b5050505050905090565b5f5f610573610cab565b9050610580818585610cb2565b600191505092915050565b5f600254905090565b5f5f61059e610cab565b90506105ab858285610cc4565b6105b6858585610d57565b60019150509392505050565b5f6012905090565b5f6105d3610e47565b905090565b5f6106306105e583610efd565b60095f8673ffffffffffffffffffffffffffffffffffffffff1673ffffffffffffffffffffffffffffffffffffffff1681526020019081526020015f20610f6890919063ffffffff16565b79ffffffffffffffffffffffffffffffffffffffffffffffffffff16905092915050565b606061065e611058565b65ffffffffffff1661066e6108b2565b65ffffffffffff16146106ad576040517f6ff0714000000000000000000000000000000000000000000000000000000000815260040160405180910390fd5b6040518060400160405280601d81526020017f6d6f64653d626c6f636b6e756d6265722666726f6d3d64656661756c74000000815250905090565b5f60085f8373ffffffffffffffffffffffffffffffffffffffff1673ffffffffffffffffffffffffffffffffffffffff1681526020019081526020015f205f9054906101000a900473ffffffffffffffffffffffffffffffffffffffff169050919050565b5f610756610cab565b90506107628183611067565b5050565b5f61077082611177565b9050919050565b5f5f5f8373ffffffffffffffffffffffffffffffffffffffff1673ffffffffffffffffffffffffffffffffffffffff1681526020019081526020015f20549050919050565b5f6107c6826111cc565b9050919050565b5f6060805f5f5f60606107de6111dd565b6107e6611218565b46305f5f1b5f67ffffffffffffffff81111561080557610804613080565b5b6040519080825280602002602001820160405280156108335781602001602082028036833780820191505090505b507f0f00000000000000000000000000000000000000000000000000000000000000959493929190965096509650965096509650965090919293949596565b5f61088f61087f83610efd565b600a610f6890919063ffffffff16565b79ffffffffffffffffffffffffffffffffffffffffffffffffffff169050919050565b5f6108bb611058565b905090565b6060600480546108cf90613050565b80601f01602080910402602001604051908101604052809291908181526020018280546108fb90613050565b80156109465780601f1061091d57610100808354040283529160200191610946565b820191905f5260205f20905b81548152906001019060200180831161092957829003601f168201915b5050505050905090565b5f61099660095f8473ffffffffffffffffffffffffffffffffffffffff1673ffffffffffffffffffffffffffffffffffffffff1681526020019081526020015f20611253565b79ffffffffffffffffffffffffffffffffffffffffffffffffffff169050919050565b5f5f6109c3610cab565b90506109d0818585610d57565b600191505092915050565b83421115610a2057836040517f4683af0e000000000000000000000000000000000000000000000000000000008152600401610a179190612a4b565b60405180910390fd5b5f610a81610a797fe48329057bfd03d55e49b547132e39cffd9c1820ad7b9d4c5307691425d15adf898989604051602001610a5e94939291906130ad565b604051602081830303815290604052805190602001206112b5565b8585856112ce565b9050610a8d81876112fc565b610a978188611067565b50505050505050565b83421115610ae557836040517f62791302000000000000000000000000000000000000000000000000000000008152600401610adc9190612a4b565b60405180910390fd5b5f7f6e71edae12b1b97f4d1f60370fef10105fa2faae0126114a169c64845d6126c9888888610b138c611353565b89604051602001610b29969594939291906130f0565b6040516020818303038152906040528051906020012090505f610b4b826112b5565b90505f610b5a828787876112ce565b90508973ffffffffffffffffffffffffffffffffffffffff168173ffffffffffffffffffffffffffffffffffffffff1614610bce57808a6040517f4b800e46000000000000000000000000000000000000000000000000000000008152600401610bc592919061314f565b60405180910390fd5b610bd98a8a8a610cb2565b50505050505050505050565b5f60015f8473ffffffffffffffffffffffffffffffffffffffff1673ffffffffffffffffffffffffffffffffffffffff1681526020019081526020015f205f8373ffffffffffffffffffffffffffffffffffffffff1673ffffffffffffffffffffffffffffffffffffffff1681526020019081526020015f2054905092915050565b610c6f61286e565b610c7983836113a6565b905092915050565b5f8183610c8e91906131a3565b905092915050565b5f8183610ca391906131f0565b905092915050565b5f33905090565b610cbf8383836001611405565b505050565b5f610ccf8484610be5565b90507fffffffffffffffffffffffffffffffffffffffffffffffffffffffffffffffff811015610d515781811015610d42578281836040517ffb8f41b2000000000000000000000000000000000000000000000000000000008152600401610d399392919061323d565b60405180910390fd5b610d5084848484035f611405565b5b50505050565b5f73ffffffffffffffffffffffffffffffffffffffff168373ffffffffffffffffffffffffffffffffffffffff1603610dc7575f6040517f96c6fd1e000000000000000000000000000000000000000000000000000000008152600401610dbe9190612b53565b60405180910390fd5b5f73ffffffffffffffffffffffffffffffffffffffff168273ffffffffffffffffffffffffffffffffffffffff1603610e37575f6040517fec442f05000000000000000000000000000000000000000000000000000000008152600401610e2e9190612b53565b60405180910390fd5b610e428383836115d4565b505050565b5f7f000000000000000000000000000000000000000000000000000000000000000073ffffffffffffffffffffffffffffffffffffffff163073ffffffffffffffffffffffffffffffffffffffff16148015610ec257507f000000000000000000000000000000000000000000000000000000000000000046145b15610eef577f00000000000000000000000000000000000000000000000000000000000000009050610efa565b610ef76115e4565b90505b90565b5f5f610f076108b2565b90508065ffffffffffff168310610f575782816040517fecd3f81e000000000000000000000000000000000000000000000000000000008152600401610f4e929190613272565b60405180910390fd5b610f6083611679565b915050919050565b5f5f835f018054905090505f5f90505f8290506005831115610fec575f610f8e846116d2565b84610f999190613299565b9050610fa7875f018261186c565b5f015f9054906101000a900465ffffffffffff1665ffffffffffff168665ffffffffffff161015610fda57809150610fea565b600181610fe791906132cc565b92505b505b5f610ffb875f0187858561187e565b90505f811461104a5761101c875f016001836110179190613299565b61186c565b5f0160069054906101000a900479ffffffffffffffffffffffffffffffffffffffffffffffffffff1661104c565b5f5b94505050505092915050565b5f61106243611679565b905090565b5f611071836106e8565b90508160085f8573ffffffffffffffffffffffffffffffffffffffff1673ffffffffffffffffffffffffffffffffffffffff1681526020019081526020015f205f6101000a81548173ffffffffffffffffffffffffffffffffffffffff021916908373ffffffffffffffffffffffffffffffffffffffff1602179055508173ffffffffffffffffffffffffffffffffffffffff168173ffffffffffffffffffffffffffffffffffffffff168473ffffffffffffffffffffffffffffffffffffffff167f3134e8a2e6d97e929a7e54011ea5485d7d196dd5f0ba4d4ef95803e8e3fc257f60405160405180910390a4611172818361116d866118f3565b611904565b505050565b5f6111c56111c060095f8573ffffffffffffffffffffffffffffffffffffffff1673ffffffffffffffffffffffffffffffffffffffff1681526020019081526020015f20611b74565b611b83565b9050919050565b5f6111d682611bda565b9050919050565b606061121360057f0000000000000000000000000000000000000000000000000000000000000000611c2090919063ffffffff16565b905090565b606061124e60067f0000000000000000000000000000000000000000000000000000000000000000611c2090919063ffffffff16565b905090565b5f5f825f018054905090505f81146112ab5761127d835f016001836112789190613299565b61186c565b5f0160069054906101000a900479ffffffffffffffffffffffffffffffffffffffffffffffffffff166112ad565b5f5b915050919050565b5f6112c76112c1610e47565b83611ccd565b9050919050565b5f5f5f5f6112de88888888611d0d565b9250925092506112ee8282611df4565b829350505050949350505050565b5f61130683611353565b905080821461134e5782816040517f752d88c00000000000000000000000000000000000000000000000000000000081526004016113459291906132ff565b60405180910390fd5b505050565b5f60075f8373ffffffffffffffffffffffffffffffffffffffff1673ffffffffffffffffffffffffffffffffffffffff1681526020019081526020015f205f815480929190600101919050559050919050565b6113ae61286e565b6113fd8260095f8673ffffffffffffffffffffffffffffffffffffffff1673ffffffffffffffffffffffffffffffffffffffff1681526020019081526020015f20611f5690919063ffffffff16565b905092915050565b5f73ffffffffffffffffffffffffffffffffffffffff168473ffffffffffffffffffffffffffffffffffffffff1603611475575f6040517fe602df0500000000000000000000000000000000000000000000000000000000815260040161146c9190612b53565b60405180910390fd5b5f73ffffffffffffffffffffffffffffffffffffffff168373ffffffffffffffffffffffffffffffffffffffff16036114e5575f6040517f94280d620000000000000000000000000000000000000000000000000000000081526004016114dc9190612b53565b60405180910390fd5b8160015f8673ffffffffffffffffffffffffffffffffffffffff1673ffffffffffffffffffffffffffffffffffffffff1681526020019081526020015f205f8573ffffffffffffffffffffffffffffffffffffffff1673ffffffffffffffffffffffffffffffffffffffff1681526020019081526020015f208190555080156115ce578273ffffffffffffffffffffffffffffffffffffffff168473ffffffffffffffffffffffffffffffffffffffff167f8c5be1e5ebec7d5bd14f71427d1e84f3dd0314c0f7b2291e5b200ac8c7c3b925846040516115c59190612a4b565b60405180910390a35b50505050565b6115df838383612025565b505050565b5f7f8b73c3c69bb8fe3d512ecc4cf759cc79239f7b179b0ffacaa9a75d522b39400f7f00000000000000000000000000000000000000000000000000000000000000007f0000000000000000000000000000000000000000000000000000000000000000463060405160200161165e959493929190613326565b60405160208183030381529060405280519060200120905090565b5f65ffffffffffff80168211156116ca576030826040517f6dfcc6500000000000000000000000000000000000000000000000000000000081526004016116c19291906133b9565b60405180910390fd5b819050919050565b5f600182116116e357819050611867565b5f8290505f60019050700100000000000000000000000000000000821061171357608082901c9150604081901b90505b68010000000000000000821061173257604082901c9150602081901b90505b640100000000821061174d57602082901c9150601081901b90505b62010000821061176657601082901c9150600881901b90505b610100821061177e57600882901c9150600481901b90505b6010821061179557600482901c9150600281901b90505b600482106117a557600181901b90505b600181600302901c905060018185816117c1576117c06133e0565b5b048201901c905060018185816117da576117d96133e0565b5b048201901c905060018185816117f3576117f26133e0565b5b048201901c9050600181858161180c5761180b6133e0565b5b048201901c90506001818581611825576118246133e0565b5b048201901c9050600181858161183e5761183d6133e0565b5b048201901c9050611860818581611858576118576133e0565b5b0482116120d3565b8103925050505b919050565b5f825f528160205f2001905092915050565b5f5b818310156118e8575f61189384846120de565b90508465ffffffffffff166118a8878361186c565b5f015f9054906101000a900465ffffffffffff1665ffffffffffff1611156118d2578092506118e2565b6001816118df91906132cc565b93505b50611880565b819050949350505050565b5f6118fd82610777565b9050919050565b8173ffffffffffffffffffffffffffffffffffffffff168373ffffffffffffffffffffffffffffffffffffffff161415801561193f57505f81115b15611b6f575f73ffffffffffffffffffffffffffffffffffffffff168373ffffffffffffffffffffffffffffffffffffffff1614611a59575f5f6119ca60095f8773ffffffffffffffffffffffffffffffffffffffff1673ffffffffffffffffffffffffffffffffffffffff1681526020019081526020015f20610c966119c5866120ff565b61216c565b79ffffffffffffffffffffffffffffffffffffffffffffffffffff16915079ffffffffffffffffffffffffffffffffffffffffffffffffffff1691508473ffffffffffffffffffffffffffffffffffffffff167fdec2bacdd2f05b59de34da9b523dff8be42e5e38e818c82fdb0bae774387a7248383604051611a4e92919061340d565b60405180910390a250505b5f73ffffffffffffffffffffffffffffffffffffffff168273ffffffffffffffffffffffffffffffffffffffff1614611b6e575f5f611adf60095f8673ffffffffffffffffffffffffffffffffffffffff1673ffffffffffffffffffffffffffffffffffffffff1681526020019081526020015f20610c81611ada866120ff565b61216c565b79ffffffffffffffffffffffffffffffffffffffffffffffffffff16915079ffffffffffffffffffffffffffffffffffffffffffffffffffff1691508373ffffffffffffffffffffffffffffffffffffffff167fdec2bacdd2f05b59de34da9b523dff8be42e5e38e818c82fdb0bae774387a7248383604051611b6392919061340d565b60405180910390a250505b5b505050565b5f815f01805490509050919050565b5f63ffffffff8016821115611bd2576020826040517f6dfcc650000000000000000000000000000000000000000000000000000000008152600401611bc992919061346d565b60405180910390fd5b819050919050565b5f60075f8373ffffffffffffffffffffffffffffffffffffffff1673ffffffffffffffffffffffffffffffffffffffff1681526020019081526020015f20549050919050565b606060ff5f1b8314611c3c57611c35836121ab565b9050611cc7565b818054611c4890613050565b80601f0160208091040260200160405190810160405280929190818152602001828054611c7490613050565b8015611cbf5780601f10611c9657610100808354040283529160200191611cbf565b820191905f5260205f20905b815481529060010190602001808311611ca257829003601f168201915b505050505090505b92915050565b5f6040517f190100000000000000000000000000000000000000000000000000000000000081528360028201528260228201526042812091505092915050565b5f5f5f7f7fffffffffffffffffffffffffffffff5d576e7357a4501ddfe92f46681b20a0845f1c1115611d49575f600385925092509250611dea565b5f6001888888886040515f8152602001604052604051611d6c9493929190613494565b6020604051602081039080840390855afa158015611d8c573d5f5f3e3d5ffd5b5050506020604051035190505f73ffffffffffffffffffffffffffffffffffffffff168173ffffffffffffffffffffffffffffffffffffffff1603611ddd575f60015f5f1b93509350935050611dea565b805f5f5f1b935093509350505b9450945094915050565b5f6003811115611e0757611e066134d7565b5b826003811115611e1a57611e196134d7565b5b0315611f525760016003811115611e3457611e336134d7565b5b826003811115611e4757611e466134d7565b5b03611e7e576040517ff645eedf00000000000000000000000000000000000000000000000000000000815260040160405180910390fd5b60026003811115611e9257611e916134d7565b5b826003811115611ea557611ea46134d7565b5b03611ee957805f1c6040517ffce698f7000000000000000000000000000000000000000000000000000000008152600401611ee09190612a4b565b60405180910390fd5b600380811115611efc57611efb6134d7565b5b826003811115611f0f57611f0e6134d7565b5b03611f5157806040517fd78bce0c000000000000000000000000000000000000000000000000000000008152600401611f489190612b00565b60405180910390fd5b5b5050565b611f5e61286e565b825f018263ffffffff1681548110611f7957611f78613504565b5b905f5260205f20016040518060400160405290815f82015f9054906101000a900465ffffffffffff1665ffffffffffff1665ffffffffffff1681526020015f820160069054906101000a900479ffffffffffffffffffffffffffffffffffffffffffffffffffff1679ffffffffffffffffffffffffffffffffffffffffffffffffffff1679ffffffffffffffffffffffffffffffffffffffffffffffffffff1681525050905092915050565b61203083838361221d565b5f73ffffffffffffffffffffffffffffffffffffffff168373ffffffffffffffffffffffffffffffffffffffff16036120c3575f61206c61058b565b90505f612077612436565b9050808211156120c05781816040517f1cb15d260000000000000000000000000000000000000000000000000000000081526004016120b792919061340d565b60405180910390fd5b50505b6120ce838383612459565b505050565b5f8115159050919050565b5f6002828418816120f2576120f16133e0565b5b0482841601905092915050565b5f79ffffffffffffffffffffffffffffffffffffffffffffffffffff80168211156121645760d0826040517f6dfcc65000000000000000000000000000000000000000000000000000000000815260040161215b92919061356a565b60405180910390fd5b819050919050565b5f5f61219f6121796108b2565b61218f61218588611253565b868863ffffffff16565b876125119092919063ffffffff16565b91509150935093915050565b60605f6121b78361252c565b90505f602067ffffffffffffffff8111156121d5576121d4613080565b5b6040519080825280601f01601f1916602001820160405280156122075781602001600182028036833780820191505090505b5090508181528360208201528092505050919050565b5f73ffffffffffffffffffffffffffffffffffffffff168373ffffffffffffffffffffffffffffffffffffffff160361226d578060025f82825461226191906132cc565b9250508190555061233b565b5f5f5f8573ffffffffffffffffffffffffffffffffffffffff1673ffffffffffffffffffffffffffffffffffffffff1681526020019081526020015f20549050818110156122f6578381836040517fe450d38c0000000000000000000000000000000000000000000000000000000081526004016122ed9392919061323d565b60405180910390fd5b8181035f5f8673ffffffffffffffffffffffffffffffffffffffff1673ffffffffffffffffffffffffffffffffffffffff1681526020019081526020015f2081905550505b5f73ffffffffffffffffffffffffffffffffffffffff168273ffffffffffffffffffffffffffffffffffffffff1603612382578060025f82825403925050819055506123cc565b805f5f8473ffffffffffffffffffffffffffffffffffffffff1673ffffffffffffffffffffffffffffffffffffffff1681526020019081526020015f205f82825401925050819055505b8173ffffffffffffffffffffffffffffffffffffffff168373ffffffffffffffffffffffffffffffffffffffff167fddf252ad1be2c89b69c2b068fc378daa952ba7f163c4a11628f55a4df523b3ef836040516124299190612a4b565b60405180910390a3505050565b5f79ffffffffffffffffffffffffffffffffffffffffffffffffffff8016905090565b5f73ffffffffffffffffffffffffffffffffffffffff168373ffffffffffffffffffffffffffffffffffffffff16036124a5576124a2600a610c8161249d846120ff565b61216c565b50505b5f73ffffffffffffffffffffffffffffffffffffffff168273ffffffffffffffffffffffffffffffffffffffff16036124f1576124ee600a610c966124e9846120ff565b61216c565b50505b61250c6124fd846106e8565b612506846106e8565b83611904565b505050565b5f5f612520855f01858561257a565b91509150935093915050565b5f5f60ff835f1c169050601f811115612571576040517fb3512b0c00000000000000000000000000000000000000000000000000000000815260040160405180910390fd5b80915050919050565b5f5f5f858054905090505f811115612786575f6125a38760018461259e9190613299565b61186c565b90505f815f015f9054906101000a900465ffffffffffff1690505f825f0160069054906101000a900479ffffffffffffffffffffffffffffffffffffffffffffffffffff1690508765ffffffffffff168265ffffffffffff161115612634576040517f2520601d00000000000000000000000000000000000000000000000000000000815260040160405180910390fd5b8765ffffffffffff168265ffffffffffff160361269e5786835f0160066101000a81548179ffffffffffffffffffffffffffffffffffffffffffffffffffff021916908379ffffffffffffffffffffffffffffffffffffffffffffffffffff160217905550612777565b8860405180604001604052808a65ffffffffffff1681526020018979ffffffffffffffffffffffffffffffffffffffffffffffffffff16815250908060018154018082558091505060019003905f5260205f20015f909190919091505f820151815f015f6101000a81548165ffffffffffff021916908365ffffffffffff1602179055506020820151815f0160066101000a81548179ffffffffffffffffffffffffffffffffffffffffffffffffffff021916908379ffffffffffffffffffffffffffffffffffffffffffffffffffff16021790555050505b80879550955050505050612866565b8560405180604001604052808765ffffffffffff1681526020018679ffffffffffffffffffffffffffffffffffffffffffffffffffff16815250908060018154018082558091505060019003905f5260205f20015f909190919091505f820151815f015f6101000a81548165ffffffffffff021916908365ffffffffffff1602179055506020820151815f0160066101000a81548179ffffffffffffffffffffffffffffffffffffffffffffffffffff021916908379ffffffffffffffffffffffffffffffffffffffffffffffffffff16021790555050505f8492509250505b935093915050565b60405180604001604052805f65ffffffffffff1681526020015f79ffffffffffffffffffffffffffffffffffffffffffffffffffff1681525090565b5f81519050919050565b5f82825260208201905092915050565b8281835e5f83830152505050565b5f601f19601f8301169050919050565b5f6128ec826128aa565b6128f681856128b4565b93506129068185602086016128c4565b61290f816128d2565b840191505092915050565b5f6020820190508181035f83015261293281846128e2565b905092915050565b5f5ffd5b5f73ffffffffffffffffffffffffffffffffffffffff82169050919050565b5f6129678261293e565b9050919050565b6129778161295d565b8114612981575f5ffd5b50565b5f813590506129928161296e565b92915050565b5f819050919050565b6129aa81612998565b81146129b4575f5ffd5b50565b5f813590506129c5816129a1565b92915050565b5f5f604083850312156129e1576129e061293a565b5b5f6129ee85828601612984565b92505060206129ff858286016129b7565b9150509250929050565b5f8115159050919050565b612a1d81612a09565b82525050565b5f602082019050612a365f830184612a14565b92915050565b612a4581612998565b82525050565b5f602082019050612a5e5f830184612a3c565b92915050565b5f5f5f60608486031215612a7b57612a7a61293a565b5b5f612a8886828701612984565b9350506020612a9986828701612984565b9250506040612aaa868287016129b7565b9150509250925092565b5f60ff82169050919050565b612ac981612ab4565b82525050565b5f602082019050612ae25f830184612ac0565b92915050565b5f819050919050565b612afa81612ae8565b82525050565b5f602082019050612b135f830184612af1565b92915050565b5f60208284031215612b2e57612b2d61293a565b5b5f612b3b84828501612984565b91505092915050565b612b4d8161295d565b82525050565b5f602082019050612b665f830184612b44565b92915050565b5f63ffffffff82169050919050565b612b8481612b6c565b82525050565b5f602082019050612b9d5f830184612b7b565b92915050565b5f7fff0000000000000000000000000000000000000000000000000000000000000082169050919050565b612bd781612ba3565b82525050565b5f81519050919050565b5f82825260208201905092915050565b5f819050602082019050919050565b612c0f81612998565b82525050565b5f612c208383612c06565b60208301905092915050565b5f602082019050919050565b5f612c4282612bdd565b612c4c8185612be7565b9350612c5783612bf7565b805f5b83811015612c87578151612c6e8882612c15565b9750612c7983612c2c565b925050600181019050612c5a565b5085935050505092915050565b5f60e082019050612ca75f83018a612bce565b8181036020830152612cb981896128e2565b90508181036040830152612ccd81886128e2565b9050612cdc6060830187612a3c565b612ce96080830186612b44565b612cf660a0830185612af1565b81810360c0830152612d088184612c38565b905098975050505050505050565b5f60208284031215612d2b57612d2a61293a565b5b5f612d38848285016129b7565b91505092915050565b5f65ffffffffffff82169050919050565b612d5b81612d41565b82525050565b5f602082019050612d745f830184612d52565b92915050565b612d8381612ab4565b8114612d8d575f5ffd5b50565b5f81359050612d9e81612d7a565b92915050565b612dad81612ae8565b8114612db7575f5ffd5b50565b5f81359050612dc881612da4565b92915050565b5f5f5f5f5f5f60c08789031215612de857612de761293a565b5b5f612df589828a01612984565b9650506020612e0689828a016129b7565b9550506040612e1789828a016129b7565b9450506060612e2889828a01612d90565b9350506080612e3989828a01612dba565b92505060a0612e4a89828a01612dba565b9150509295509295509295565b5f5f5f5f5f5f5f60e0888a031215612e7257612e7161293a565b5b5f612e7f8a828b01612984565b9750506020612e908a828b01612984565b9650506040612ea18a828b016129b7565b9550506060612eb28a828b016129b7565b9450506080612ec38a828b01612d90565b93505060a0612ed48a828b01612dba565b92505060c0612ee58a828b01612dba565b91505092959891949750929550565b5f5f60408385031215612f0a57612f0961293a565b5b5f612f1785828601612984565b9250506020612f2885828601612984565b9150509250929050565b612f3b81612b6c565b8114612f45575f5ffd5b50565b5f81359050612f5681612f32565b92915050565b5f5f60408385031215612f7257612f7161293a565b5b5f612f7f85828601612984565b9250506020612f9085828601612f48565b9150509250929050565b612fa381612d41565b82525050565b5f79ffffffffffffffffffffffffffffffffffffffffffffffffffff82169050919050565b612fd781612fa9565b82525050565b604082015f820151612ff15f850182612f9a565b5060208201516130046020850182612fce565b50505050565b5f60408201905061301d5f830184612fdd565b92915050565b7f4e487b71000000000000000000000000000000000000000000000000000000005f52602260045260245ffd5b5f600282049050600182168061306757607f821691505b60208210810361307a57613079613023565b5b50919050565b7f4e487b71000000000000000000000000000000000000000000000000000000005f52604160045260245ffd5b5f6080820190506130c05f830187612af1565b6130cd6020830186612b44565b6130da6040830185612a3c565b6130e76060830184612a3c565b95945050505050565b5f60c0820190506131035f830189612af1565b6131106020830188612b44565b61311d6040830187612b44565b61312a6060830186612a3c565b6131376080830185612a3c565b61314460a0830184612a3c565b979650505050505050565b5f6040820190506131625f830185612b44565b61316f6020830184612b44565b9392505050565b7f4e487b71000000000000000000000000000000000000000000000000000000005f52601160045260245ffd5b5f6131ad82612fa9565b91506131b883612fa9565b9250828201905079ffffffffffffffffffffffffffffffffffffffffffffffffffff8111156131ea576131e9613176565b5b92915050565b5f6131fa82612fa9565b915061320583612fa9565b9250828203905079ffffffffffffffffffffffffffffffffffffffffffffffffffff81111561323757613236613176565b5b92915050565b5f6060820190506132505f830186612b44565b61325d6020830185612a3c565b61326a6040830184612a3c565b949350505050565b5f6040820190506132855f830185612a3c565b6132926020830184612d52565b9392505050565b5f6132a382612998565b91506132ae83612998565b92508282039050818111156132c6576132c5613176565b5b92915050565b5f6132d682612998565b91506132e183612998565b92508282019050808211156132f9576132f8613176565b5b92915050565b5f6040820190506133125f830185612b44565b61331f6020830184612a3c565b9392505050565b5f60a0820190506133395f830188612af1565b6133466020830187612af1565b6133536040830186612af1565b6133606060830185612a3c565b61336d6080830184612b44565b9695505050505050565b5f819050919050565b5f819050919050565b5f6133a361339e61339984613377565b613380565b612ab4565b9050919050565b6133b381613389565b82525050565b5f6040820190506133cc5f8301856133aa565b6133d96020830184612a3c565b9392505050565b7f4e487b71000000000000000000000000000000000000000000000000000000005f52601260045260245ffd5b5f6040820190506134205f830185612a3c565b61342d6020830184612a3c565b9392505050565b5f819050919050565b5f61345761345261344d84613434565b613380565b612ab4565b9050919050565b6134678161343d565b82525050565b5f6040820190506134805f83018561345e565b61348d6020830184612a3c565b9392505050565b5f6080820190506134a75f830187612af1565b6134b46020830186612ac0565b6134c16040830185612af1565b6134ce6060830184612af1565b95945050505050565b7f4e487b71000000000000000000000000000000000000000000000000000000005f52602160045260245ffd5b7f4e487b71000000000000000000000000000000000000000000000000000000005f52603260045260245ffd5b5f819050919050565b5f61355461354f61354a84613531565b613380565b612ab4565b9050919050565b6135648161353a565b82525050565b5f60408201905061357d5f83018561355b565b61358a6020830184612a3c565b939250505056fea2646970667358221220d58bc7872e0d7ba56158ddbbad12712615a364ef1896422b6b9af9bdfaa542be64736f6c63430008210033","linkReferences":{}},"methodIdentifiers":{"CLOCK_MODE()":"4bf5d7e9","DOMAIN_SEPARATOR()":"3644e515","allowance(address,address)":"dd62ed3e","approve(address,uint256)":"095ea7b3","balanceOf(address)":"70a08231","checkpoints(address,uint32)":"f1127ed8","clock()":"91ddadf4","decimals()":"313ce567","delegate(address)":"5c19a95c","delegateBySig(address,uint256,uint256,uint8,bytes32,bytes32)":"c3cda520","delegates(address)":"587cde1e","eip712Domain()":"84b0196e","getPastTotalSupply(uint256)":"8e539e8c","getPastVotes(address,uint256)":"3a46b1a8","getVotes(address)":"9ab24eb0","name()":"06fdde03","nonces(address)":"7ecebe00","numCheckpoints(address)":"6fcfff45","permit(address,address,uint256,uint256,uint8,bytes32,bytes32)":"d505accf","symbol()":"95d89b41","totalSupply()":"18160ddd","transfer(address,uint256)":"a9059cbb","transferFrom(address,address,uint256)":"23b872dd"},"id":71}